{
  "contractName": "PreSale",
  "abi": [
    {
      "inputs": [
        {
          "internalType": "string",
          "name": "_name",
          "type": "string"
        },
        {
          "internalType": "string",
          "name": "_symbol",
          "type": "string"
        },
        {
          "internalType": "string",
          "name": "_initBaseURI",
          "type": "string"
        },
        {
          "internalType": "string",
          "name": "_initNotRevealedUri",
          "type": "string"
        }
      ],
      "stateMutability": "nonpayable",
      "type": "constructor"
    },
    {
      "anonymous": false,
      "inputs": [
        {
          "indexed": true,
          "internalType": "address",
          "name": "owner",
          "type": "address"
        },
        {
          "indexed": true,
          "internalType": "address",
          "name": "approved",
          "type": "address"
        },
        {
          "indexed": true,
          "internalType": "uint256",
          "name": "tokenId",
          "type": "uint256"
        }
      ],
      "name": "Approval",
      "type": "event"
    },
    {
      "anonymous": false,
      "inputs": [
        {
          "indexed": true,
          "internalType": "address",
          "name": "owner",
          "type": "address"
        },
        {
          "indexed": true,
          "internalType": "address",
          "name": "operator",
          "type": "address"
        },
        {
          "indexed": false,
          "internalType": "bool",
          "name": "approved",
          "type": "bool"
        }
      ],
      "name": "ApprovalForAll",
      "type": "event"
    },
    {
      "anonymous": false,
      "inputs": [
        {
          "indexed": true,
          "internalType": "address",
          "name": "previousOwner",
          "type": "address"
        },
        {
          "indexed": true,
          "internalType": "address",
          "name": "newOwner",
          "type": "address"
        }
      ],
      "name": "OwnershipTransferred",
      "type": "event"
    },
    {
      "anonymous": false,
      "inputs": [
        {
          "indexed": true,
          "internalType": "address",
          "name": "from",
          "type": "address"
        },
        {
          "indexed": true,
          "internalType": "address",
          "name": "to",
          "type": "address"
        },
        {
          "indexed": true,
          "internalType": "uint256",
          "name": "tokenId",
          "type": "uint256"
        }
      ],
      "name": "Transfer",
      "type": "event"
    },
    {
      "inputs": [
        {
          "internalType": "address",
          "name": "",
          "type": "address"
        }
      ],
      "name": "addressMintedBalance",
      "outputs": [
        {
          "internalType": "uint256",
          "name": "",
          "type": "uint256"
        }
      ],
      "stateMutability": "view",
      "type": "function",
      "constant": true
    },
    {
      "inputs": [
        {
          "internalType": "address",
          "name": "to",
          "type": "address"
        },
        {
          "internalType": "uint256",
          "name": "tokenId",
          "type": "uint256"
        }
      ],
      "name": "approve",
      "outputs": [],
      "stateMutability": "nonpayable",
      "type": "function"
    },
    {
      "inputs": [
        {
          "internalType": "address",
          "name": "owner",
          "type": "address"
        }
      ],
      "name": "balanceOf",
      "outputs": [
        {
          "internalType": "uint256",
          "name": "",
          "type": "uint256"
        }
      ],
      "stateMutability": "view",
      "type": "function",
      "constant": true
    },
    {
      "inputs": [],
      "name": "baseExtension",
      "outputs": [
        {
          "internalType": "string",
          "name": "",
          "type": "string"
        }
      ],
      "stateMutability": "view",
      "type": "function",
      "constant": true
    },
    {
      "inputs": [],
      "name": "baseURI",
      "outputs": [
        {
          "internalType": "string",
          "name": "",
          "type": "string"
        }
      ],
      "stateMutability": "view",
      "type": "function",
      "constant": true
    },
    {
      "inputs": [],
      "name": "cost",
      "outputs": [
        {
          "internalType": "uint256",
          "name": "",
          "type": "uint256"
        }
      ],
      "stateMutability": "view",
      "type": "function",
      "constant": true
    },
    {
      "inputs": [
        {
          "internalType": "uint256",
          "name": "tokenId",
          "type": "uint256"
        }
      ],
      "name": "getApproved",
      "outputs": [
        {
          "internalType": "address",
          "name": "",
          "type": "address"
        }
      ],
      "stateMutability": "view",
      "type": "function",
      "constant": true
    },
    {
      "inputs": [
        {
          "internalType": "address",
          "name": "owner",
          "type": "address"
        },
        {
          "internalType": "address",
          "name": "operator",
          "type": "address"
        }
      ],
      "name": "isApprovedForAll",
      "outputs": [
        {
          "internalType": "bool",
          "name": "",
          "type": "bool"
        }
      ],
      "stateMutability": "view",
      "type": "function",
      "constant": true
    },
    {
      "inputs": [],
      "name": "maxMintAmount",
      "outputs": [
        {
          "internalType": "uint256",
          "name": "",
          "type": "uint256"
        }
      ],
      "stateMutability": "view",
      "type": "function",
      "constant": true
    },
    {
      "inputs": [],
      "name": "maxSupply",
      "outputs": [
        {
          "internalType": "uint256",
          "name": "",
          "type": "uint256"
        }
      ],
      "stateMutability": "view",
      "type": "function",
      "constant": true
    },
    {
      "inputs": [],
      "name": "name",
      "outputs": [
        {
          "internalType": "string",
          "name": "",
          "type": "string"
        }
      ],
      "stateMutability": "view",
      "type": "function",
      "constant": true
    },
    {
      "inputs": [],
      "name": "nftPerAddressLimit",
      "outputs": [
        {
          "internalType": "uint256",
          "name": "",
          "type": "uint256"
        }
      ],
      "stateMutability": "view",
      "type": "function",
      "constant": true
    },
    {
      "inputs": [],
      "name": "notRevealedUri",
      "outputs": [
        {
          "internalType": "string",
          "name": "",
          "type": "string"
        }
      ],
      "stateMutability": "view",
      "type": "function",
      "constant": true
    },
    {
      "inputs": [],
      "name": "onlyWhitelisted",
      "outputs": [
        {
          "internalType": "bool",
          "name": "",
          "type": "bool"
        }
      ],
      "stateMutability": "view",
      "type": "function",
      "constant": true
    },
    {
      "inputs": [],
      "name": "owner",
      "outputs": [
        {
          "internalType": "address",
          "name": "",
          "type": "address"
        }
      ],
      "stateMutability": "view",
      "type": "function",
      "constant": true
    },
    {
      "inputs": [
        {
          "internalType": "uint256",
          "name": "tokenId",
          "type": "uint256"
        }
      ],
      "name": "ownerOf",
      "outputs": [
        {
          "internalType": "address",
          "name": "",
          "type": "address"
        }
      ],
      "stateMutability": "view",
      "type": "function",
      "constant": true
    },
    {
      "inputs": [],
      "name": "paused",
      "outputs": [
        {
          "internalType": "bool",
          "name": "",
          "type": "bool"
        }
      ],
      "stateMutability": "view",
      "type": "function",
      "constant": true
    },
    {
      "inputs": [],
      "name": "renounceOwnership",
      "outputs": [],
      "stateMutability": "nonpayable",
      "type": "function"
    },
    {
      "inputs": [],
      "name": "revealed",
      "outputs": [
        {
          "internalType": "bool",
          "name": "",
          "type": "bool"
        }
      ],
      "stateMutability": "view",
      "type": "function",
      "constant": true
    },
    {
      "inputs": [
        {
          "internalType": "address",
          "name": "from",
          "type": "address"
        },
        {
          "internalType": "address",
          "name": "to",
          "type": "address"
        },
        {
          "internalType": "uint256",
          "name": "tokenId",
          "type": "uint256"
        }
      ],
      "name": "safeTransferFrom",
      "outputs": [],
      "stateMutability": "nonpayable",
      "type": "function"
    },
    {
      "inputs": [
        {
          "internalType": "address",
          "name": "from",
          "type": "address"
        },
        {
          "internalType": "address",
          "name": "to",
          "type": "address"
        },
        {
          "internalType": "uint256",
          "name": "tokenId",
          "type": "uint256"
        },
        {
          "internalType": "bytes",
          "name": "_data",
          "type": "bytes"
        }
      ],
      "name": "safeTransferFrom",
      "outputs": [],
      "stateMutability": "nonpayable",
      "type": "function"
    },
    {
      "inputs": [
        {
          "internalType": "address",
          "name": "operator",
          "type": "address"
        },
        {
          "internalType": "bool",
          "name": "approved",
          "type": "bool"
        }
      ],
      "name": "setApprovalForAll",
      "outputs": [],
      "stateMutability": "nonpayable",
      "type": "function"
    },
    {
      "inputs": [
        {
          "internalType": "bytes4",
          "name": "interfaceId",
          "type": "bytes4"
        }
      ],
      "name": "supportsInterface",
      "outputs": [
        {
          "internalType": "bool",
          "name": "",
          "type": "bool"
        }
      ],
      "stateMutability": "view",
      "type": "function",
      "constant": true
    },
    {
      "inputs": [],
      "name": "symbol",
      "outputs": [
        {
          "internalType": "string",
          "name": "",
          "type": "string"
        }
      ],
      "stateMutability": "view",
      "type": "function",
      "constant": true
    },
    {
      "inputs": [
        {
          "internalType": "uint256",
          "name": "index",
          "type": "uint256"
        }
      ],
      "name": "tokenByIndex",
      "outputs": [
        {
          "internalType": "uint256",
          "name": "",
          "type": "uint256"
        }
      ],
      "stateMutability": "view",
      "type": "function",
      "constant": true
    },
    {
      "inputs": [
        {
          "internalType": "address",
          "name": "owner",
          "type": "address"
        },
        {
          "internalType": "uint256",
          "name": "index",
          "type": "uint256"
        }
      ],
      "name": "tokenOfOwnerByIndex",
      "outputs": [
        {
          "internalType": "uint256",
          "name": "",
          "type": "uint256"
        }
      ],
      "stateMutability": "view",
      "type": "function",
      "constant": true
    },
    {
      "inputs": [],
      "name": "totalSupply",
      "outputs": [
        {
          "internalType": "uint256",
          "name": "",
          "type": "uint256"
        }
      ],
      "stateMutability": "view",
      "type": "function",
      "constant": true
    },
    {
      "inputs": [
        {
          "internalType": "address",
          "name": "from",
          "type": "address"
        },
        {
          "internalType": "address",
          "name": "to",
          "type": "address"
        },
        {
          "internalType": "uint256",
          "name": "tokenId",
          "type": "uint256"
        }
      ],
      "name": "transferFrom",
      "outputs": [],
      "stateMutability": "nonpayable",
      "type": "function"
    },
    {
      "inputs": [
        {
          "internalType": "address",
          "name": "newOwner",
          "type": "address"
        }
      ],
      "name": "transferOwnership",
      "outputs": [],
      "stateMutability": "nonpayable",
      "type": "function"
    },
    {
      "inputs": [
        {
          "internalType": "uint256",
          "name": "",
          "type": "uint256"
        }
      ],
      "name": "whitelistedAddresses",
      "outputs": [
        {
          "internalType": "address",
          "name": "",
          "type": "address"
        }
      ],
      "stateMutability": "view",
      "type": "function",
      "constant": true
    },
    {
      "inputs": [
        {
          "internalType": "uint256",
          "name": "_mintAmount",
          "type": "uint256"
        }
      ],
      "name": "mint",
      "outputs": [],
      "stateMutability": "payable",
      "type": "function",
      "payable": true
    },
    {
      "inputs": [
        {
          "internalType": "address",
          "name": "_user",
          "type": "address"
        }
      ],
      "name": "isWhitelisted",
      "outputs": [
        {
          "internalType": "bool",
          "name": "",
          "type": "bool"
        }
      ],
      "stateMutability": "view",
      "type": "function",
      "constant": true
    },
    {
      "inputs": [
        {
          "internalType": "address",
          "name": "_owner",
          "type": "address"
        }
      ],
      "name": "walletOfOwner",
      "outputs": [
        {
          "internalType": "uint256[]",
          "name": "",
          "type": "uint256[]"
        }
      ],
      "stateMutability": "view",
      "type": "function",
      "constant": true
    },
    {
      "inputs": [
        {
          "internalType": "uint256",
          "name": "tokenId",
          "type": "uint256"
        }
      ],
      "name": "tokenURI",
      "outputs": [
        {
          "internalType": "string",
          "name": "",
          "type": "string"
        }
      ],
      "stateMutability": "view",
      "type": "function",
      "constant": true
    },
    {
      "inputs": [],
      "name": "reveal",
      "outputs": [],
      "stateMutability": "nonpayable",
      "type": "function"
    },
    {
      "inputs": [
        {
          "internalType": "uint256",
          "name": "_limit",
          "type": "uint256"
        }
      ],
      "name": "setNftPerAddressLimit",
      "outputs": [],
      "stateMutability": "nonpayable",
      "type": "function"
    },
    {
      "inputs": [
        {
          "internalType": "uint256",
          "name": "_newCost",
          "type": "uint256"
        }
      ],
      "name": "setCost",
      "outputs": [],
      "stateMutability": "nonpayable",
      "type": "function"
    },
    {
      "inputs": [
        {
          "internalType": "uint256",
          "name": "_newmaxMintAmount",
          "type": "uint256"
        }
      ],
      "name": "setmaxMintAmount",
      "outputs": [],
      "stateMutability": "nonpayable",
      "type": "function"
    },
    {
      "inputs": [
        {
          "internalType": "string",
          "name": "_newBaseURI",
          "type": "string"
        }
      ],
      "name": "setBaseURI",
      "outputs": [],
      "stateMutability": "nonpayable",
      "type": "function"
    },
    {
      "inputs": [
        {
          "internalType": "string",
          "name": "_newBaseExtension",
          "type": "string"
        }
      ],
      "name": "setBaseExtension",
      "outputs": [],
      "stateMutability": "nonpayable",
      "type": "function"
    },
    {
      "inputs": [
        {
          "internalType": "string",
          "name": "_notRevealedURI",
          "type": "string"
        }
      ],
      "name": "setNotRevealedURI",
      "outputs": [],
      "stateMutability": "nonpayable",
      "type": "function"
    },
    {
      "inputs": [
        {
          "internalType": "bool",
          "name": "_state",
          "type": "bool"
        }
      ],
      "name": "pause",
      "outputs": [],
      "stateMutability": "nonpayable",
      "type": "function"
    },
    {
      "inputs": [
        {
          "internalType": "bool",
          "name": "_state",
          "type": "bool"
        }
      ],
      "name": "setOnlyWhitelisted",
      "outputs": [],
      "stateMutability": "nonpayable",
      "type": "function"
    },
    {
      "inputs": [
        {
          "internalType": "address[]",
          "name": "_users",
          "type": "address[]"
        }
      ],
      "name": "whitelistUsers",
      "outputs": [],
      "stateMutability": "nonpayable",
      "type": "function"
    },
    {
      "inputs": [],
      "name": "withdraw",
      "outputs": [],
      "stateMutability": "payable",
      "type": "function",
      "payable": true
    }
  ],
  "bytecode": "0x60806040526040518060400160405280600581526020017f2e6a736f6e000000000000000000000000000000000000000000000000000000815250600c908051906020019062000051929190620003c0565b50662386f26fc10000600e55600a600f55600260105560036011556000601260006101000a81548160ff0219169083151502179055506000601260016101000a81548160ff0219169083151502179055506001601260026101000a81548160ff021916908315150217905550348015620000ca57600080fd5b5060405162005864380380620058648339818101604052810190620000f091906200060d565b838381600090805190602001906200010a929190620003c0565b50806001908051906020019062000123929190620003c0565b505050620001466200013a6200017260201b60201c565b6200017a60201b60201c565b62000157826200024060201b60201c565b6200016881620002eb60201b60201c565b50505050620007e3565b600033905090565b6000600a60009054906101000a900473ffffffffffffffffffffffffffffffffffffffff16905081600a60006101000a81548173ffffffffffffffffffffffffffffffffffffffff021916908373ffffffffffffffffffffffffffffffffffffffff1602179055508173ffffffffffffffffffffffffffffffffffffffff168173ffffffffffffffffffffffffffffffffffffffff167f8be0079c531659141344cd1fd0a4f28419497f9722a3daafe3b4186f6b6457e060405160405180910390a35050565b620002506200017260201b60201c565b73ffffffffffffffffffffffffffffffffffffffff16620002766200039660201b60201c565b73ffffffffffffffffffffffffffffffffffffffff1614620002cf576040517f08c379a0000000000000000000000000000000000000000000000000000000008152600401620002c6906200075c565b60405180910390fd5b80600b9080519060200190620002e7929190620003c0565b5050565b620002fb6200017260201b60201c565b73ffffffffffffffffffffffffffffffffffffffff16620003216200039660201b60201c565b73ffffffffffffffffffffffffffffffffffffffff16146200037a576040517f08c379a000000000000000000000000000000000000000000000000000000000815260040162000371906200075c565b60405180910390fd5b80600d908051906020019062000392929190620003c0565b5050565b6000600a60009054906101000a900473ffffffffffffffffffffffffffffffffffffffff16905090565b828054620003ce90620007ad565b90600052602060002090601f016020900481019282620003f257600085556200043e565b82601f106200040d57805160ff19168380011785556200043e565b828001600101855582156200043e579182015b828111156200043d57825182559160200191906001019062000420565b5b5090506200044d919062000451565b5090565b5b808211156200046c57600081600090555060010162000452565b5090565b6000604051905090565b600080fd5b600080fd5b600080fd5b600080fd5b6000601f19601f8301169050919050565b7f4e487b7100000000000000000000000000000000000000000000000000000000600052604160045260246000fd5b620004d9826200048e565b810181811067ffffffffffffffff82111715620004fb57620004fa6200049f565b5b80604052505050565b60006200051062000470565b90506200051e8282620004ce565b919050565b600067ffffffffffffffff8211156200054157620005406200049f565b5b6200054c826200048e565b9050602081019050919050565b60005b83811015620005795780820151818401526020810190506200055c565b8381111562000589576000848401525b50505050565b6000620005a6620005a08462000523565b62000504565b905082815260208101848484011115620005c557620005c462000489565b5b620005d284828562000559565b509392505050565b600082601f830112620005f257620005f162000484565b5b8151620006048482602086016200058f565b91505092915050565b600080600080608085870312156200062a57620006296200047a565b5b600085015167ffffffffffffffff8111156200064b576200064a6200047f565b5b6200065987828801620005da565b945050602085015167ffffffffffffffff8111156200067d576200067c6200047f565b5b6200068b87828801620005da565b935050604085015167ffffffffffffffff811115620006af57620006ae6200047f565b5b620006bd87828801620005da565b925050606085015167ffffffffffffffff811115620006e157620006e06200047f565b5b620006ef87828801620005da565b91505092959194509250565b600082825260208201905092915050565b7f4f776e61626c653a2063616c6c6572206973206e6f7420746865206f776e6572600082015250565b600062000744602083620006fb565b915062000751826200070c565b602082019050919050565b60006020820190508181036000830152620007778162000735565b9050919050565b7f4e487b7100000000000000000000000000000000000000000000000000000000600052602260045260246000fd5b60006002820490506001821680620007c657607f821691505b60208210811415620007dd57620007dc6200077e565b5b50919050565b61507180620007f36000396000f3fe6080604052600436106102725760003560e01c80636352211e1161014f578063b88d4fde116100c1578063d5abeb011161007a578063d5abeb011461095c578063da3ef23f14610987578063e985e9c5146109b0578063edec5f27146109ed578063f2c4ce1e14610a16578063f2fde38b14610a3f57610272565b8063b88d4fde1461083a578063ba4e5c4914610863578063ba7d2c76146108a0578063c6682862146108cb578063c87b56dd146108f6578063d0eb26b01461093357610272565b80638da5cb5b116101135780638da5cb5b1461075d57806395d89b41146107885780639c70b512146107b3578063a0712d68146107de578063a22cb465146107fa578063a475b5dd1461082357610272565b80636352211e146106785780636c0360eb146106b557806370a08231146106e0578063715018a61461071d5780637f00c7a61461073457610272565b80632f745c59116101e8578063438b6300116101ac578063438b63001461055657806344a0d68a146105935780634f6ccce7146105bc57806351830227146105f957806355f804b3146106245780635c975abb1461064d57610272565b80632f745c59146104805780633af32abf146104bd5780633c952764146104fa5780633ccfd60b1461052357806342842e0e1461052d57610272565b8063095ea7b31161023a578063095ea7b31461037057806313faede61461039957806318160ddd146103c457806318cae269146103ef578063239c70ae1461042c57806323b872dd1461045757610272565b806301ffc9a71461027757806302329a29146102b457806306fdde03146102dd578063081812fc14610308578063081c8c4414610345575b600080fd5b34801561028357600080fd5b5061029e600480360381019061029991906136a4565b610a68565b6040516102ab91906136ec565b60405180910390f35b3480156102c057600080fd5b506102db60048036038101906102d69190613733565b610ae2565b005b3480156102e957600080fd5b506102f2610b7b565b6040516102ff91906137f9565b60405180910390f35b34801561031457600080fd5b5061032f600480360381019061032a9190613851565b610c0d565b60405161033c91906138bf565b60405180910390f35b34801561035157600080fd5b5061035a610c92565b60405161036791906137f9565b60405180910390f35b34801561037c57600080fd5b5061039760048036038101906103929190613906565b610d20565b005b3480156103a557600080fd5b506103ae610e38565b6040516103bb9190613955565b60405180910390f35b3480156103d057600080fd5b506103d9610e3e565b6040516103e69190613955565b60405180910390f35b3480156103fb57600080fd5b5061041660048036038101906104119190613970565b610e4b565b6040516104239190613955565b60405180910390f35b34801561043857600080fd5b50610441610e63565b60405161044e9190613955565b60405180910390f35b34801561046357600080fd5b5061047e6004803603810190610479919061399d565b610e69565b005b34801561048c57600080fd5b506104a760048036038101906104a29190613906565b610ec9565b6040516104b49190613955565b60405180910390f35b3480156104c957600080fd5b506104e460048036038101906104df9190613970565b610f6e565b6040516104f191906136ec565b60405180910390f35b34801561050657600080fd5b50610521600480360381019061051c9190613733565b61101d565b005b61052b6110b6565b005b34801561053957600080fd5b50610554600480360381019061054f919061399d565b6111b2565b005b34801561056257600080fd5b5061057d60048036038101906105789190613970565b6111d2565b60405161058a9190613aae565b60405180910390f35b34801561059f57600080fd5b506105ba60048036038101906105b59190613851565b611280565b005b3480156105c857600080fd5b506105e360048036038101906105de9190613851565b611306565b6040516105f09190613955565b60405180910390f35b34801561060557600080fd5b5061060e611377565b60405161061b91906136ec565b60405180910390f35b34801561063057600080fd5b5061064b60048036038101906106469190613c05565b61138a565b005b34801561065957600080fd5b50610662611420565b60405161066f91906136ec565b60405180910390f35b34801561068457600080fd5b5061069f600480360381019061069a9190613851565b611433565b6040516106ac91906138bf565b60405180910390f35b3480156106c157600080fd5b506106ca6114e5565b6040516106d791906137f9565b60405180910390f35b3480156106ec57600080fd5b5061070760048036038101906107029190613970565b611573565b6040516107149190613955565b60405180910390f35b34801561072957600080fd5b5061073261162b565b005b34801561074057600080fd5b5061075b60048036038101906107569190613851565b6116b3565b005b34801561076957600080fd5b50610772611739565b60405161077f91906138bf565b60405180910390f35b34801561079457600080fd5b5061079d611763565b6040516107aa91906137f9565b60405180910390f35b3480156107bf57600080fd5b506107c86117f5565b6040516107d591906136ec565b60405180910390f35b6107f860048036038101906107f39190613851565b611808565b005b34801561080657600080fd5b50610821600480360381019061081c9190613c4e565b611b51565b005b34801561082f57600080fd5b50610838611b67565b005b34801561084657600080fd5b50610861600480360381019061085c9190613d2f565b611c00565b005b34801561086f57600080fd5b5061088a60048036038101906108859190613851565b611c62565b60405161089791906138bf565b60405180910390f35b3480156108ac57600080fd5b506108b5611ca1565b6040516108c29190613955565b60405180910390f35b3480156108d757600080fd5b506108e0611ca7565b6040516108ed91906137f9565b60405180910390f35b34801561090257600080fd5b5061091d60048036038101906109189190613851565b611d35565b60405161092a91906137f9565b60405180910390f35b34801561093f57600080fd5b5061095a60048036038101906109559190613851565b611e8e565b005b34801561096857600080fd5b50610971611f14565b60405161097e9190613955565b60405180910390f35b34801561099357600080fd5b506109ae60048036038101906109a99190613c05565b611f1a565b005b3480156109bc57600080fd5b506109d760048036038101906109d29190613db2565b611fb0565b6040516109e491906136ec565b60405180910390f35b3480156109f957600080fd5b50610a146004803603810190610a0f9190613e52565b612044565b005b348015610a2257600080fd5b50610a3d6004803603810190610a389190613c05565b6120e4565b005b348015610a4b57600080fd5b50610a666004803603810190610a619190613970565b61217a565b005b60007f780e9d63000000000000000000000000000000000000000000000000000000007bffffffffffffffffffffffffffffffffffffffffffffffffffffffff1916827bffffffffffffffffffffffffffffffffffffffffffffffffffffffff19161480610adb5750610ada82612272565b5b9050919050565b610aea612354565b73ffffffffffffffffffffffffffffffffffffffff16610b08611739565b73ffffffffffffffffffffffffffffffffffffffff1614610b5e576040517f08c379a0000000000000000000000000000000000000000000000000000000008152600401610b5590613eeb565b60405180910390fd5b80601260006101000a81548160ff02191690831515021790555050565b606060008054610b8a90613f3a565b80601f0160208091040260200160405190810160405280929190818152602001828054610bb690613f3a565b8015610c035780601f10610bd857610100808354040283529160200191610c03565b820191906000526020600020905b815481529060010190602001808311610be657829003601f168201915b5050505050905090565b6000610c188261235c565b610c57576040517f08c379a0000000000000000000000000000000000000000000000000000000008152600401610c4e90613fde565b60405180910390fd5b6004600083815260200190815260200160002060009054906101000a900473ffffffffffffffffffffffffffffffffffffffff169050919050565b600d8054610c9f90613f3a565b80601f0160208091040260200160405190810160405280929190818152602001828054610ccb90613f3a565b8015610d185780601f10610ced57610100808354040283529160200191610d18565b820191906000526020600020905b815481529060010190602001808311610cfb57829003601f168201915b505050505081565b6000610d2b82611433565b90508073ffffffffffffffffffffffffffffffffffffffff168373ffffffffffffffffffffffffffffffffffffffff161415610d9c576040517f08c379a0000000000000000000000000000000000000000000000000000000008152600401610d9390614070565b60405180910390fd5b8073ffffffffffffffffffffffffffffffffffffffff16610dbb612354565b73ffffffffffffffffffffffffffffffffffffffff161480610dea5750610de981610de4612354565b611fb0565b5b610e29576040517f08c379a0000000000000000000000000000000000000000000000000000000008152600401610e2090614102565b60405180910390fd5b610e3383836123c8565b505050565b600e5481565b6000600880549050905090565b60146020528060005260406000206000915090505481565b60105481565b610e7a610e74612354565b82612481565b610eb9576040517f08c379a0000000000000000000000000000000000000000000000000000000008152600401610eb090614194565b60405180910390fd5b610ec483838361255f565b505050565b6000610ed483611573565b8210610f15576040517f08c379a0000000000000000000000000000000000000000000000000000000008152600401610f0c90614226565b60405180910390fd5b600660008473ffffffffffffffffffffffffffffffffffffffff1673ffffffffffffffffffffffffffffffffffffffff168152602001908152602001600020600083815260200190815260200160002054905092915050565b600080600090505b601380549050811015611012578273ffffffffffffffffffffffffffffffffffffffff1660138281548110610fae57610fad614246565b5b9060005260206000200160009054906101000a900473ffffffffffffffffffffffffffffffffffffffff1673ffffffffffffffffffffffffffffffffffffffff161415610fff576001915050611018565b808061100a906142a4565b915050610f76565b50600090505b919050565b611025612354565b73ffffffffffffffffffffffffffffffffffffffff16611043611739565b73ffffffffffffffffffffffffffffffffffffffff1614611099576040517f08c379a000000000000000000000000000000000000000000000000000000000815260040161109090613eeb565b60405180910390fd5b80601260026101000a81548160ff02191690831515021790555050565b6110be612354565b73ffffffffffffffffffffffffffffffffffffffff166110dc611739565b73ffffffffffffffffffffffffffffffffffffffff1614611132576040517f08c379a000000000000000000000000000000000000000000000000000000000815260040161112990613eeb565b60405180910390fd5b600061113c611739565b73ffffffffffffffffffffffffffffffffffffffff164760405161115f9061431e565b60006040518083038185875af1925050503d806000811461119c576040519150601f19603f3d011682016040523d82523d6000602084013e6111a1565b606091505b50509050806111af57600080fd5b50565b6111cd83838360405180602001604052806000815250611c00565b505050565b606060006111df83611573565b905060008167ffffffffffffffff8111156111fd576111fc613ada565b5b60405190808252806020026020018201604052801561122b5781602001602082028036833780820191505090505b50905060005b82811015611275576112438582610ec9565b82828151811061125657611255614246565b5b602002602001018181525050808061126d906142a4565b915050611231565b508092505050919050565b611288612354565b73ffffffffffffffffffffffffffffffffffffffff166112a6611739565b73ffffffffffffffffffffffffffffffffffffffff16146112fc576040517f08c379a00000000000000000000000000000000000000000000000000000000081526004016112f390613eeb565b60405180910390fd5b80600e8190555050565b6000611310610e3e565b8210611351576040517f08c379a0000000000000000000000000000000000000000000000000000000008152600401611348906143a5565b60405180910390fd5b6008828154811061136557611364614246565b5b90600052602060002001549050919050565b601260019054906101000a900460ff1681565b611392612354565b73ffffffffffffffffffffffffffffffffffffffff166113b0611739565b73ffffffffffffffffffffffffffffffffffffffff1614611406576040517f08c379a00000000000000000000000000000000000000000000000000000000081526004016113fd90613eeb565b60405180910390fd5b80600b908051906020019061141c9291906134d4565b5050565b601260009054906101000a900460ff1681565b6000806002600084815260200190815260200160002060009054906101000a900473ffffffffffffffffffffffffffffffffffffffff169050600073ffffffffffffffffffffffffffffffffffffffff168173ffffffffffffffffffffffffffffffffffffffff1614156114dc576040517f08c379a00000000000000000000000000000000000000000000000000000000081526004016114d390614437565b60405180910390fd5b80915050919050565b600b80546114f290613f3a565b80601f016020809104026020016040519081016040528092919081815260200182805461151e90613f3a565b801561156b5780601f106115405761010080835404028352916020019161156b565b820191906000526020600020905b81548152906001019060200180831161154e57829003601f168201915b505050505081565b60008073ffffffffffffffffffffffffffffffffffffffff168273ffffffffffffffffffffffffffffffffffffffff1614156115e4576040517f08c379a00000000000000000000000000000000000000000000000000000000081526004016115db906144c9565b60405180910390fd5b600360008373ffffffffffffffffffffffffffffffffffffffff1673ffffffffffffffffffffffffffffffffffffffff168152602001908152602001600020549050919050565b611633612354565b73ffffffffffffffffffffffffffffffffffffffff16611651611739565b73ffffffffffffffffffffffffffffffffffffffff16146116a7576040517f08c379a000000000000000000000000000000000000000000000000000000000815260040161169e90613eeb565b60405180910390fd5b6116b160006127c6565b565b6116bb612354565b73ffffffffffffffffffffffffffffffffffffffff166116d9611739565b73ffffffffffffffffffffffffffffffffffffffff161461172f576040517f08c379a000000000000000000000000000000000000000000000000000000000815260040161172690613eeb565b60405180910390fd5b8060108190555050565b6000600a60009054906101000a900473ffffffffffffffffffffffffffffffffffffffff16905090565b60606001805461177290613f3a565b80601f016020809104026020016040519081016040528092919081815260200182805461179e90613f3a565b80156117eb5780601f106117c0576101008083540402835291602001916117eb565b820191906000526020600020905b8154815290600101906020018083116117ce57829003601f168201915b5050505050905090565b601260029054906101000a900460ff1681565b601260009054906101000a900460ff1615611858576040517f08c379a000000000000000000000000000000000000000000000000000000000815260040161184f90614535565b60405180910390fd5b6000611862610e3e565b9050600082116118a7576040517f08c379a000000000000000000000000000000000000000000000000000000000815260040161189e906145a1565b60405180910390fd5b6010548211156118ec576040517f08c379a00000000000000000000000000000000000000000000000000000000081526004016118e390614633565b60405180910390fd5b600f5482826118fb9190614653565b111561193c576040517f08c379a0000000000000000000000000000000000000000000000000000000008152600401611933906146f5565b60405180910390fd5b611944611739565b73ffffffffffffffffffffffffffffffffffffffff163373ffffffffffffffffffffffffffffffffffffffff1614611ac15760011515601260029054906101000a900460ff1615151415611a705761199b33610f6e565b6119da576040517f08c379a00000000000000000000000000000000000000000000000000000000081526004016119d190614761565b60405180910390fd5b6000601460003373ffffffffffffffffffffffffffffffffffffffff1673ffffffffffffffffffffffffffffffffffffffff1681526020019081526020016000205490506011548382611a2d9190614653565b1115611a6e576040517f08c379a0000000000000000000000000000000000000000000000000000000008152600401611a65906147cd565b60405180910390fd5b505b81600e54611a7e91906147ed565b341015611ac0576040517f08c379a0000000000000000000000000000000000000000000000000000000008152600401611ab790614893565b60405180910390fd5b5b6000600190505b828111611b4c57601460003373ffffffffffffffffffffffffffffffffffffffff1673ffffffffffffffffffffffffffffffffffffffff1681526020019081526020016000206000815480929190611b1f906142a4565b9190505550611b39338284611b349190614653565b61288c565b8080611b44906142a4565b915050611ac8565b505050565b611b63611b5c612354565b83836128aa565b5050565b611b6f612354565b73ffffffffffffffffffffffffffffffffffffffff16611b8d611739565b73ffffffffffffffffffffffffffffffffffffffff1614611be3576040517f08c379a0000000000000000000000000000000000000000000000000000000008152600401611bda90613eeb565b60405180910390fd5b6001601260016101000a81548160ff021916908315150217905550565b611c11611c0b612354565b83612481565b611c50576040517f08c379a0000000000000000000000000000000000000000000000000000000008152600401611c4790614194565b60405180910390fd5b611c5c84848484612a17565b50505050565b60138181548110611c7257600080fd5b906000526020600020016000915054906101000a900473ffffffffffffffffffffffffffffffffffffffff1681565b60115481565b600c8054611cb490613f3a565b80601f0160208091040260200160405190810160405280929190818152602001828054611ce090613f3a565b8015611d2d5780601f10611d0257610100808354040283529160200191611d2d565b820191906000526020600020905b815481529060010190602001808311611d1057829003601f168201915b505050505081565b6060611d408261235c565b611d7f576040517f08c379a0000000000000000000000000000000000000000000000000000000008152600401611d7690614925565b60405180910390fd5b60001515601260019054906101000a900460ff1615151415611e2d57600d8054611da890613f3a565b80601f0160208091040260200160405190810160405280929190818152602001828054611dd490613f3a565b8015611e215780601f10611df657610100808354040283529160200191611e21565b820191906000526020600020905b815481529060010190602001808311611e0457829003601f168201915b50505050509050611e89565b6000611e37612a73565b90506000815111611e575760405180602001604052806000815250611e85565b80611e6184612b05565b600c604051602001611e7593929190614a15565b6040516020818303038152906040525b9150505b919050565b611e96612354565b73ffffffffffffffffffffffffffffffffffffffff16611eb4611739565b73ffffffffffffffffffffffffffffffffffffffff1614611f0a576040517f08c379a0000000000000000000000000000000000000000000000000000000008152600401611f0190613eeb565b60405180910390fd5b8060118190555050565b600f5481565b611f22612354565b73ffffffffffffffffffffffffffffffffffffffff16611f40611739565b73ffffffffffffffffffffffffffffffffffffffff1614611f96576040517f08c379a0000000000000000000000000000000000000000000000000000000008152600401611f8d90613eeb565b60405180910390fd5b80600c9080519060200190611fac9291906134d4565b5050565b6000600560008473ffffffffffffffffffffffffffffffffffffffff1673ffffffffffffffffffffffffffffffffffffffff16815260200190815260200160002060008373ffffffffffffffffffffffffffffffffffffffff1673ffffffffffffffffffffffffffffffffffffffff16815260200190815260200160002060009054906101000a900460ff16905092915050565b61204c612354565b73ffffffffffffffffffffffffffffffffffffffff1661206a611739565b73ffffffffffffffffffffffffffffffffffffffff16146120c0576040517f08c379a00000000000000000000000000000000000000000000000000000000081526004016120b790613eeb565b60405180910390fd5b601360006120ce919061355a565b8181601391906120df92919061357b565b505050565b6120ec612354565b73ffffffffffffffffffffffffffffffffffffffff1661210a611739565b73ffffffffffffffffffffffffffffffffffffffff1614612160576040517f08c379a000000000000000000000000000000000000000000000000000000000815260040161215790613eeb565b60405180910390fd5b80600d90805190602001906121769291906134d4565b5050565b612182612354565b73ffffffffffffffffffffffffffffffffffffffff166121a0611739565b73ffffffffffffffffffffffffffffffffffffffff16146121f6576040517f08c379a00000000000000000000000000000000000000000000000000000000081526004016121ed90613eeb565b60405180910390fd5b600073ffffffffffffffffffffffffffffffffffffffff168173ffffffffffffffffffffffffffffffffffffffff161415612266576040517f08c379a000000000000000000000000000000000000000000000000000000000815260040161225d90614ab8565b60405180910390fd5b61226f816127c6565b50565b60007f80ac58cd000000000000000000000000000000000000000000000000000000007bffffffffffffffffffffffffffffffffffffffffffffffffffffffff1916827bffffffffffffffffffffffffffffffffffffffffffffffffffffffff1916148061233d57507f5b5e139f000000000000000000000000000000000000000000000000000000007bffffffffffffffffffffffffffffffffffffffffffffffffffffffff1916827bffffffffffffffffffffffffffffffffffffffffffffffffffffffff1916145b8061234d575061234c82612c66565b5b9050919050565b600033905090565b60008073ffffffffffffffffffffffffffffffffffffffff166002600084815260200190815260200160002060009054906101000a900473ffffffffffffffffffffffffffffffffffffffff1673ffffffffffffffffffffffffffffffffffffffff1614159050919050565b816004600083815260200190815260200160002060006101000a81548173ffffffffffffffffffffffffffffffffffffffff021916908373ffffffffffffffffffffffffffffffffffffffff160217905550808273ffffffffffffffffffffffffffffffffffffffff1661243b83611433565b73ffffffffffffffffffffffffffffffffffffffff167f8c5be1e5ebec7d5bd14f71427d1e84f3dd0314c0f7b2291e5b200ac8c7c3b92560405160405180910390a45050565b600061248c8261235c565b6124cb576040517f08c379a00000000000000000000000000000000000000000000000000000000081526004016124c290614b4a565b60405180910390fd5b60006124d683611433565b90508073ffffffffffffffffffffffffffffffffffffffff168473ffffffffffffffffffffffffffffffffffffffff16148061254557508373ffffffffffffffffffffffffffffffffffffffff1661252d84610c0d565b73ffffffffffffffffffffffffffffffffffffffff16145b8061255657506125558185611fb0565b5b91505092915050565b8273ffffffffffffffffffffffffffffffffffffffff1661257f82611433565b73ffffffffffffffffffffffffffffffffffffffff16146125d5576040517f08c379a00000000000000000000000000000000000000000000000000000000081526004016125cc90614bdc565b60405180910390fd5b600073ffffffffffffffffffffffffffffffffffffffff168273ffffffffffffffffffffffffffffffffffffffff161415612645576040517f08c379a000000000000000000000000000000000000000000000000000000000815260040161263c90614c6e565b60405180910390fd5b612650838383612cd0565b61265b6000826123c8565b6001600360008573ffffffffffffffffffffffffffffffffffffffff1673ffffffffffffffffffffffffffffffffffffffff16815260200190815260200160002060008282546126ab9190614c8e565b925050819055506001600360008473ffffffffffffffffffffffffffffffffffffffff1673ffffffffffffffffffffffffffffffffffffffff16815260200190815260200160002060008282546127029190614653565b92505081905550816002600083815260200190815260200160002060006101000a81548173ffffffffffffffffffffffffffffffffffffffff021916908373ffffffffffffffffffffffffffffffffffffffff160217905550808273ffffffffffffffffffffffffffffffffffffffff168473ffffffffffffffffffffffffffffffffffffffff167fddf252ad1be2c89b69c2b068fc378daa952ba7f163c4a11628f55a4df523b3ef60405160405180910390a46127c1838383612de4565b505050565b6000600a60009054906101000a900473ffffffffffffffffffffffffffffffffffffffff16905081600a60006101000a81548173ffffffffffffffffffffffffffffffffffffffff021916908373ffffffffffffffffffffffffffffffffffffffff1602179055508173ffffffffffffffffffffffffffffffffffffffff168173ffffffffffffffffffffffffffffffffffffffff167f8be0079c531659141344cd1fd0a4f28419497f9722a3daafe3b4186f6b6457e060405160405180910390a35050565b6128a6828260405180602001604052806000815250612de9565b5050565b8173ffffffffffffffffffffffffffffffffffffffff168373ffffffffffffffffffffffffffffffffffffffff161415612919576040517f08c379a000000000000000000000000000000000000000000000000000000000815260040161291090614d0e565b60405180910390fd5b80600560008573ffffffffffffffffffffffffffffffffffffffff1673ffffffffffffffffffffffffffffffffffffffff16815260200190815260200160002060008473ffffffffffffffffffffffffffffffffffffffff1673ffffffffffffffffffffffffffffffffffffffff16815260200190815260200160002060006101000a81548160ff0219169083151502179055508173ffffffffffffffffffffffffffffffffffffffff168373ffffffffffffffffffffffffffffffffffffffff167f17307eab39ab6107e8899845ad3d59bd9653f200f220920489ca2b5937696c3183604051612a0a91906136ec565b60405180910390a3505050565b612a2284848461255f565b612a2e84848484612e44565b612a6d576040517f08c379a0000000000000000000000000000000000000000000000000000000008152600401612a6490614da0565b60405180910390fd5b50505050565b6060600b8054612a8290613f3a565b80601f0160208091040260200160405190810160405280929190818152602001828054612aae90613f3a565b8015612afb5780601f10612ad057610100808354040283529160200191612afb565b820191906000526020600020905b815481529060010190602001808311612ade57829003601f168201915b5050505050905090565b60606000821415612b4d576040518060400160405280600181526020017f30000000000000000000000000000000000000000000000000000000000000008152509050612c61565b600082905060005b60008214612b7f578080612b68906142a4565b915050600a82612b789190614def565b9150612b55565b60008167ffffffffffffffff811115612b9b57612b9a613ada565b5b6040519080825280601f01601f191660200182016040528015612bcd5781602001600182028036833780820191505090505b5090505b60008514612c5a57600182612be69190614c8e565b9150600a85612bf59190614e20565b6030612c019190614653565b60f81b818381518110612c1757612c16614246565b5b60200101907effffffffffffffffffffffffffffffffffffffffffffffffffffffffffffff1916908160001a905350600a85612c539190614def565b9450612bd1565b8093505050505b919050565b60007f01ffc9a7000000000000000000000000000000000000000000000000000000007bffffffffffffffffffffffffffffffffffffffffffffffffffffffff1916827bffffffffffffffffffffffffffffffffffffffffffffffffffffffff1916149050919050565b612cdb838383612fcc565b600073ffffffffffffffffffffffffffffffffffffffff168373ffffffffffffffffffffffffffffffffffffffff161415612d1e57612d1981612fd1565b612d5d565b8173ffffffffffffffffffffffffffffffffffffffff168373ffffffffffffffffffffffffffffffffffffffff1614612d5c57612d5b838261301a565b5b5b600073ffffffffffffffffffffffffffffffffffffffff168273ffffffffffffffffffffffffffffffffffffffff161415612da057612d9b81613187565b612ddf565b8273ffffffffffffffffffffffffffffffffffffffff168273ffffffffffffffffffffffffffffffffffffffff1614612dde57612ddd8282613258565b5b5b505050565b505050565b612df383836132d7565b612e006000848484612e44565b612e3f576040517f08c379a0000000000000000000000000000000000000000000000000000000008152600401612e3690614da0565b60405180910390fd5b505050565b6000612e658473ffffffffffffffffffffffffffffffffffffffff166134b1565b15612fbf578373ffffffffffffffffffffffffffffffffffffffff1663150b7a02612e8e612354565b8786866040518563ffffffff1660e01b8152600401612eb09493929190614ea6565b6020604051808303816000875af1925050508015612eec57506040513d601f19601f82011682018060405250810190612ee99190614f07565b60015b612f6f573d8060008114612f1c576040519150601f19603f3d011682016040523d82523d6000602084013e612f21565b606091505b50600081511415612f67576040517f08c379a0000000000000000000000000000000000000000000000000000000008152600401612f5e90614da0565b60405180910390fd5b805181602001fd5b63150b7a0260e01b7bffffffffffffffffffffffffffffffffffffffffffffffffffffffff1916817bffffffffffffffffffffffffffffffffffffffffffffffffffffffff191614915050612fc4565b600190505b949350505050565b505050565b6008805490506009600083815260200190815260200160002081905550600881908060018154018082558091505060019003906000526020600020016000909190919091505550565b6000600161302784611573565b6130319190614c8e565b9050600060076000848152602001908152602001600020549050818114613116576000600660008673ffffffffffffffffffffffffffffffffffffffff1673ffffffffffffffffffffffffffffffffffffffff168152602001908152602001600020600084815260200190815260200160002054905080600660008773ffffffffffffffffffffffffffffffffffffffff1673ffffffffffffffffffffffffffffffffffffffff168152602001908152602001600020600084815260200190815260200160002081905550816007600083815260200190815260200160002081905550505b6007600084815260200190815260200160002060009055600660008573ffffffffffffffffffffffffffffffffffffffff1673ffffffffffffffffffffffffffffffffffffffff16815260200190815260200160002060008381526020019081526020016000206000905550505050565b6000600160088054905061319b9190614c8e565b90506000600960008481526020019081526020016000205490506000600883815481106131cb576131ca614246565b5b9060005260206000200154905080600883815481106131ed576131ec614246565b5b90600052602060002001819055508160096000838152602001908152602001600020819055506009600085815260200190815260200160002060009055600880548061323c5761323b614f34565b5b6001900381819060005260206000200160009055905550505050565b600061326383611573565b905081600660008573ffffffffffffffffffffffffffffffffffffffff1673ffffffffffffffffffffffffffffffffffffffff168152602001908152602001600020600083815260200190815260200160002081905550806007600084815260200190815260200160002081905550505050565b600073ffffffffffffffffffffffffffffffffffffffff168273ffffffffffffffffffffffffffffffffffffffff161415613347576040517f08c379a000000000000000000000000000000000000000000000000000000000815260040161333e90614faf565b60405180910390fd5b6133508161235c565b15613390576040517f08c379a00000000000000000000000000000000000000000000000000000000081526004016133879061501b565b60405180910390fd5b61339c60008383612cd0565b6001600360008473ffffffffffffffffffffffffffffffffffffffff1673ffffffffffffffffffffffffffffffffffffffff16815260200190815260200160002060008282546133ec9190614653565b92505081905550816002600083815260200190815260200160002060006101000a81548173ffffffffffffffffffffffffffffffffffffffff021916908373ffffffffffffffffffffffffffffffffffffffff160217905550808273ffffffffffffffffffffffffffffffffffffffff16600073ffffffffffffffffffffffffffffffffffffffff167fddf252ad1be2c89b69c2b068fc378daa952ba7f163c4a11628f55a4df523b3ef60405160405180910390a46134ad60008383612de4565b5050565b6000808273ffffffffffffffffffffffffffffffffffffffff163b119050919050565b8280546134e090613f3a565b90600052602060002090601f0160209004810192826135025760008555613549565b82601f1061351b57805160ff1916838001178555613549565b82800160010185558215613549579182015b8281111561354857825182559160200191906001019061352d565b5b509050613556919061361b565b5090565b5080546000825590600052602060002090810190613578919061361b565b50565b82805482825590600052602060002090810192821561360a579160200282015b8281111561360957823573ffffffffffffffffffffffffffffffffffffffff168260006101000a81548173ffffffffffffffffffffffffffffffffffffffff021916908373ffffffffffffffffffffffffffffffffffffffff1602179055509160200191906001019061359b565b5b509050613617919061361b565b5090565b5b8082111561363457600081600090555060010161361c565b5090565b6000604051905090565b600080fd5b600080fd5b60007fffffffff0000000000000000000000000000000000000000000000000000000082169050919050565b6136818161364c565b811461368c57600080fd5b50565b60008135905061369e81613678565b92915050565b6000602082840312156136ba576136b9613642565b5b60006136c88482850161368f565b91505092915050565b60008115159050919050565b6136e6816136d1565b82525050565b600060208201905061370160008301846136dd565b92915050565b613710816136d1565b811461371b57600080fd5b50565b60008135905061372d81613707565b92915050565b60006020828403121561374957613748613642565b5b60006137578482850161371e565b91505092915050565b600081519050919050565b600082825260208201905092915050565b60005b8381101561379a57808201518184015260208101905061377f565b838111156137a9576000848401525b50505050565b6000601f19601f8301169050919050565b60006137cb82613760565b6137d5818561376b565b93506137e581856020860161377c565b6137ee816137af565b840191505092915050565b6000602082019050818103600083015261381381846137c0565b905092915050565b6000819050919050565b61382e8161381b565b811461383957600080fd5b50565b60008135905061384b81613825565b92915050565b60006020828403121561386757613866613642565b5b60006138758482850161383c565b91505092915050565b600073ffffffffffffffffffffffffffffffffffffffff82169050919050565b60006138a98261387e565b9050919050565b6138b98161389e565b82525050565b60006020820190506138d460008301846138b0565b92915050565b6138e38161389e565b81146138ee57600080fd5b50565b600081359050613900816138da565b92915050565b6000806040838503121561391d5761391c613642565b5b600061392b858286016138f1565b925050602061393c8582860161383c565b9150509250929050565b61394f8161381b565b82525050565b600060208201905061396a6000830184613946565b92915050565b60006020828403121561398657613985613642565b5b6000613994848285016138f1565b91505092915050565b6000806000606084860312156139b6576139b5613642565b5b60006139c4868287016138f1565b93505060206139d5868287016138f1565b92505060406139e68682870161383c565b9150509250925092565b600081519050919050565b600082825260208201905092915050565b6000819050602082019050919050565b613a258161381b565b82525050565b6000613a378383613a1c565b60208301905092915050565b6000602082019050919050565b6000613a5b826139f0565b613a6581856139fb565b9350613a7083613a0c565b8060005b83811015613aa1578151613a888882613a2b565b9750613a9383613a43565b925050600181019050613a74565b5085935050505092915050565b60006020820190508181036000830152613ac88184613a50565b905092915050565b600080fd5b600080fd5b7f4e487b7100000000000000000000000000000000000000000000000000000000600052604160045260246000fd5b613b12826137af565b810181811067ffffffffffffffff82111715613b3157613b30613ada565b5b80604052505050565b6000613b44613638565b9050613b508282613b09565b919050565b600067ffffffffffffffff821115613b7057613b6f613ada565b5b613b79826137af565b9050602081019050919050565b82818337600083830152505050565b6000613ba8613ba384613b55565b613b3a565b905082815260208101848484011115613bc457613bc3613ad5565b5b613bcf848285613b86565b509392505050565b600082601f830112613bec57613beb613ad0565b5b8135613bfc848260208601613b95565b91505092915050565b600060208284031215613c1b57613c1a613642565b5b600082013567ffffffffffffffff811115613c3957613c38613647565b5b613c4584828501613bd7565b91505092915050565b60008060408385031215613c6557613c64613642565b5b6000613c73858286016138f1565b9250506020613c848582860161371e565b9150509250929050565b600067ffffffffffffffff821115613ca957613ca8613ada565b5b613cb2826137af565b9050602081019050919050565b6000613cd2613ccd84613c8e565b613b3a565b905082815260208101848484011115613cee57613ced613ad5565b5b613cf9848285613b86565b509392505050565b600082601f830112613d1657613d15613ad0565b5b8135613d26848260208601613cbf565b91505092915050565b60008060008060808587031215613d4957613d48613642565b5b6000613d57878288016138f1565b9450506020613d68878288016138f1565b9350506040613d798782880161383c565b925050606085013567ffffffffffffffff811115613d9a57613d99613647565b5b613da687828801613d01565b91505092959194509250565b60008060408385031215613dc957613dc8613642565b5b6000613dd7858286016138f1565b9250506020613de8858286016138f1565b9150509250929050565b600080fd5b600080fd5b60008083601f840112613e1257613e11613ad0565b5b8235905067ffffffffffffffff811115613e2f57613e2e613df2565b5b602083019150836020820283011115613e4b57613e4a613df7565b5b9250929050565b60008060208385031215613e6957613e68613642565b5b600083013567ffffffffffffffff811115613e8757613e86613647565b5b613e9385828601613dfc565b92509250509250929050565b7f4f776e61626c653a2063616c6c6572206973206e6f7420746865206f776e6572600082015250565b6000613ed560208361376b565b9150613ee082613e9f565b602082019050919050565b60006020820190508181036000830152613f0481613ec8565b9050919050565b7f4e487b7100000000000000000000000000000000000000000000000000000000600052602260045260246000fd5b60006002820490506001821680613f5257607f821691505b60208210811415613f6657613f65613f0b565b5b50919050565b7f4552433732313a20617070726f76656420717565727920666f72206e6f6e657860008201527f697374656e7420746f6b656e0000000000000000000000000000000000000000602082015250565b6000613fc8602c8361376b565b9150613fd382613f6c565b604082019050919050565b60006020820190508181036000830152613ff781613fbb565b9050919050565b7f4552433732313a20617070726f76616c20746f2063757272656e74206f776e6560008201527f7200000000000000000000000000000000000000000000000000000000000000602082015250565b600061405a60218361376b565b915061406582613ffe565b604082019050919050565b600060208201905081810360008301526140898161404d565b9050919050565b7f4552433732313a20617070726f76652063616c6c6572206973206e6f74206f7760008201527f6e6572206e6f7220617070726f76656420666f7220616c6c0000000000000000602082015250565b60006140ec60388361376b565b91506140f782614090565b604082019050919050565b6000602082019050818103600083015261411b816140df565b9050919050565b7f4552433732313a207472616e736665722063616c6c6572206973206e6f74206f60008201527f776e6572206e6f7220617070726f766564000000000000000000000000000000602082015250565b600061417e60318361376b565b915061418982614122565b604082019050919050565b600060208201905081810360008301526141ad81614171565b9050919050565b7f455243373231456e756d657261626c653a206f776e657220696e646578206f7560008201527f74206f6620626f756e6473000000000000000000000000000000000000000000602082015250565b6000614210602b8361376b565b915061421b826141b4565b604082019050919050565b6000602082019050818103600083015261423f81614203565b9050919050565b7f4e487b7100000000000000000000000000000000000000000000000000000000600052603260045260246000fd5b7f4e487b7100000000000000000000000000000000000000000000000000000000600052601160045260246000fd5b60006142af8261381b565b91507fffffffffffffffffffffffffffffffffffffffffffffffffffffffffffffffff8214156142e2576142e1614275565b5b600182019050919050565b600081905092915050565b50565b60006143086000836142ed565b9150614313826142f8565b600082019050919050565b6000614329826142fb565b9150819050919050565b7f455243373231456e756d657261626c653a20676c6f62616c20696e646578206f60008201527f7574206f6620626f756e64730000000000000000000000000000000000000000602082015250565b600061438f602c8361376b565b915061439a82614333565b604082019050919050565b600060208201905081810360008301526143be81614382565b9050919050565b7f4552433732313a206f776e657220717565727920666f72206e6f6e657869737460008201527f656e7420746f6b656e0000000000000000000000000000000000000000000000602082015250565b600061442160298361376b565b915061442c826143c5565b604082019050919050565b6000602082019050818103600083015261445081614414565b9050919050565b7f4552433732313a2062616c616e636520717565727920666f7220746865207a6560008201527f726f206164647265737300000000000000000000000000000000000000000000602082015250565b60006144b3602a8361376b565b91506144be82614457565b604082019050919050565b600060208201905081810360008301526144e2816144a6565b9050919050565b7f74686520636f6e74726163742069732070617573656400000000000000000000600082015250565b600061451f60168361376b565b915061452a826144e9565b602082019050919050565b6000602082019050818103600083015261454e81614512565b9050919050565b7f6e65656420746f206d696e74206174206c656173742031204e46540000000000600082015250565b600061458b601b8361376b565b915061459682614555565b602082019050919050565b600060208201905081810360008301526145ba8161457e565b9050919050565b7f6d6178206d696e7420616d6f756e74207065722073657373696f6e206578636560008201527f6564656400000000000000000000000000000000000000000000000000000000602082015250565b600061461d60248361376b565b9150614628826145c1565b604082019050919050565b6000602082019050818103600083015261464c81614610565b9050919050565b600061465e8261381b565b91506146698361381b565b9250827fffffffffffffffffffffffffffffffffffffffffffffffffffffffffffffffff0382111561469e5761469d614275565b5b828201905092915050565b7f6d6178204e4654206c696d697420657863656564656400000000000000000000600082015250565b60006146df60168361376b565b91506146ea826146a9565b602082019050919050565b6000602082019050818103600083015261470e816146d2565b9050919050565b7f75736572206973206e6f742077686974656c6973746564000000000000000000600082015250565b600061474b60178361376b565b915061475682614715565b602082019050919050565b6000602082019050818103600083015261477a8161473e565b9050919050565b7f6d6178204e465420706572206164647265737320657863656564656400000000600082015250565b60006147b7601c8361376b565b91506147c282614781565b602082019050919050565b600060208201905081810360008301526147e6816147aa565b9050919050565b60006147f88261381b565b91506148038361381b565b9250817fffffffffffffffffffffffffffffffffffffffffffffffffffffffffffffffff048311821515161561483c5761483b614275565b5b828202905092915050565b7f696e73756666696369656e742066756e64730000000000000000000000000000600082015250565b600061487d60128361376b565b915061488882614847565b602082019050919050565b600060208201905081810360008301526148ac81614870565b9050919050565b7f4552433732314d657461646174613a2055524920717565727920666f72206e6f60008201527f6e6578697374656e7420746f6b656e0000000000000000000000000000000000602082015250565b600061490f602f8361376b565b915061491a826148b3565b604082019050919050565b6000602082019050818103600083015261493e81614902565b9050919050565b600081905092915050565b600061495b82613760565b6149658185614945565b935061497581856020860161377c565b80840191505092915050565b60008190508160005260206000209050919050565b600081546149a381613f3a565b6149ad8186614945565b945060018216600081146149c857600181146149d957614a0c565b60ff19831686528186019350614a0c565b6149e285614981565b60005b83811015614a04578154818901526001820191506020810190506149e5565b838801955050505b50505092915050565b6000614a218286614950565b9150614a2d8285614950565b9150614a398284614996565b9150819050949350505050565b7f4f776e61626c653a206e6577206f776e657220697320746865207a65726f206160008201527f6464726573730000000000000000000000000000000000000000000000000000602082015250565b6000614aa260268361376b565b9150614aad82614a46565b604082019050919050565b60006020820190508181036000830152614ad181614a95565b9050919050565b7f4552433732313a206f70657261746f7220717565727920666f72206e6f6e657860008201527f697374656e7420746f6b656e0000000000000000000000000000000000000000602082015250565b6000614b34602c8361376b565b9150614b3f82614ad8565b604082019050919050565b60006020820190508181036000830152614b6381614b27565b9050919050565b7f4552433732313a207472616e736665722066726f6d20696e636f72726563742060008201527f6f776e6572000000000000000000000000000000000000000000000000000000602082015250565b6000614bc660258361376b565b9150614bd182614b6a565b604082019050919050565b60006020820190508181036000830152614bf581614bb9565b9050919050565b7f4552433732313a207472616e7366657220746f20746865207a65726f2061646460008201527f7265737300000000000000000000000000000000000000000000000000000000602082015250565b6000614c5860248361376b565b9150614c6382614bfc565b604082019050919050565b60006020820190508181036000830152614c8781614c4b565b9050919050565b6000614c998261381b565b9150614ca48361381b565b925082821015614cb757614cb6614275565b5b828203905092915050565b7f4552433732313a20617070726f766520746f2063616c6c657200000000000000600082015250565b6000614cf860198361376b565b9150614d0382614cc2565b602082019050919050565b60006020820190508181036000830152614d2781614ceb565b9050919050565b7f4552433732313a207472616e7366657220746f206e6f6e20455243373231526560008201527f63656976657220696d706c656d656e7465720000000000000000000000000000602082015250565b6000614d8a60328361376b565b9150614d9582614d2e565b604082019050919050565b60006020820190508181036000830152614db981614d7d565b9050919050565b7f4e487b7100000000000000000000000000000000000000000000000000000000600052601260045260246000fd5b6000614dfa8261381b565b9150614e058361381b565b925082614e1557614e14614dc0565b5b828204905092915050565b6000614e2b8261381b565b9150614e368361381b565b925082614e4657614e45614dc0565b5b828206905092915050565b600081519050919050565b600082825260208201905092915050565b6000614e7882614e51565b614e828185614e5c565b9350614e9281856020860161377c565b614e9b816137af565b840191505092915050565b6000608082019050614ebb60008301876138b0565b614ec860208301866138b0565b614ed56040830185613946565b8181036060830152614ee78184614e6d565b905095945050505050565b600081519050614f0181613678565b92915050565b600060208284031215614f1d57614f1c613642565b5b6000614f2b84828501614ef2565b91505092915050565b7f4e487b7100000000000000000000000000000000000000000000000000000000600052603160045260246000fd5b7f4552433732313a206d696e7420746f20746865207a65726f2061646472657373600082015250565b6000614f9960208361376b565b9150614fa482614f63565b602082019050919050565b60006020820190508181036000830152614fc881614f8c565b9050919050565b7f4552433732313a20746f6b656e20616c7265616479206d696e74656400000000600082015250565b6000615005601c8361376b565b915061501082614fcf565b602082019050919050565b6000602082019050818103600083015261503481614ff8565b905091905056fea2646970667358221220b44b514c20706c697b5ac9cc3a51d89141dc6c592cc9cd54544454bdff2efdb964736f6c634300080c0033",
  "immutableReferences": {},
  "source": "// SPDX-License-Identifier: GPL-3.0\r\n\r\npragma solidity >=0.7.0 <0.9.0;\r\n\r\nimport \"@openzeppelin/contracts/token/ERC721/extensions/ERC721Enumerable.sol\";\r\nimport \"@openzeppelin/contracts/access/Ownable.sol\";\r\n\r\ncontract PreSale is ERC721Enumerable, Ownable {\r\n    using Strings for uint256;\r\n\r\n    string public baseURI;\r\n    string public baseExtension = \".json\";\r\n    string public notRevealedUri;\r\n    uint256 public cost = 0.01 ether;\r\n    uint256 public maxSupply = 10;\r\n    uint256 public maxMintAmount = 2;\r\n    uint256 public nftPerAddressLimit = 3;\r\n    bool public paused = false;\r\n    bool public revealed = false;\r\n    bool public onlyWhitelisted = true;\r\n    address[] public whitelistedAddresses;\r\n    mapping(address => uint256) public addressMintedBalance;\r\n\r\n\r\n    constructor(\r\n        string memory _name,\r\n        string memory _symbol,\r\n        string memory _initBaseURI,\r\n        string memory _initNotRevealedUri\r\n    ) ERC721(_name, _symbol) {\r\n        setBaseURI(_initBaseURI);\r\n        setNotRevealedURI(_initNotRevealedUri);\r\n    }\r\n\r\n    // internal\r\n    function _baseURI() internal view virtual override returns (string memory) {\r\n        return baseURI;\r\n    }\r\n\r\n    // public\r\n    function mint(uint256 _mintAmount) public payable {\r\n        require(!paused, \"the contract is paused\");\r\n        uint256 supply = totalSupply();\r\n        require(_mintAmount > 0, \"need to mint at least 1 NFT\");\r\n        require(_mintAmount <= maxMintAmount, \"max mint amount per session exceeded\");\r\n        require(supply + _mintAmount <= maxSupply, \"max NFT limit exceeded\");\r\n\r\n        if (msg.sender != owner()) {\r\n            if(onlyWhitelisted == true) {\r\n                require(isWhitelisted(msg.sender), \"user is not whitelisted\");\r\n                uint256 ownerMintedCount = addressMintedBalance[msg.sender];\r\n                require(ownerMintedCount + _mintAmount <= nftPerAddressLimit, \"max NFT per address exceeded\");\r\n            }\r\n            require(msg.value >= cost * _mintAmount, \"insufficient funds\");\r\n        }\r\n\r\n        for (uint256 i = 1; i <= _mintAmount; i++) {\r\n            addressMintedBalance[msg.sender]++;\r\n            _safeMint(msg.sender, supply + i);\r\n        }\r\n    }\r\n\r\n    function isWhitelisted(address _user) public view returns (bool) {\r\n        for (uint i = 0; i < whitelistedAddresses.length; i++) {\r\n            if (whitelistedAddresses[i] == _user) {\r\n                return true;\r\n            }\r\n        }\r\n        return false;\r\n    }\r\n\r\n    function walletOfOwner(address _owner)\r\n    public\r\n    view\r\n    returns (uint256[] memory)\r\n    {\r\n        uint256 ownerTokenCount = balanceOf(_owner);\r\n        uint256[] memory tokenIds = new uint256[](ownerTokenCount);\r\n        for (uint256 i; i < ownerTokenCount; i++) {\r\n            tokenIds[i] = tokenOfOwnerByIndex(_owner, i);\r\n        }\r\n        return tokenIds;\r\n    }\r\n\r\n    function tokenURI(uint256 tokenId)\r\n    public\r\n    view\r\n    virtual\r\n    override\r\n    returns (string memory)\r\n    {\r\n        require(\r\n            _exists(tokenId),\r\n            \"ERC721Metadata: URI query for nonexistent token\"\r\n        );\r\n\r\n        if(revealed == false) {\r\n            return notRevealedUri;\r\n        }\r\n\r\n        string memory currentBaseURI = _baseURI();\r\n        return bytes(currentBaseURI).length > 0\r\n        ? string(abi.encodePacked(currentBaseURI, tokenId.toString(), baseExtension))\r\n        : \"\";\r\n    }\r\n\r\n    //only owner\r\n    function reveal() public onlyOwner {\r\n        revealed = true;\r\n    }\r\n\r\n    function setNftPerAddressLimit(uint256 _limit) public onlyOwner {\r\n        nftPerAddressLimit = _limit;\r\n    }\r\n\r\n    function setCost(uint256 _newCost) public onlyOwner {\r\n        cost = _newCost;\r\n    }\r\n\r\n    function setmaxMintAmount(uint256 _newmaxMintAmount) public onlyOwner {\r\n        maxMintAmount = _newmaxMintAmount;\r\n    }\r\n\r\n    function setBaseURI(string memory _newBaseURI) public onlyOwner {\r\n        baseURI = _newBaseURI;\r\n    }\r\n\r\n    function setBaseExtension(string memory _newBaseExtension) public onlyOwner {\r\n        baseExtension = _newBaseExtension;\r\n    }\r\n\r\n    function setNotRevealedURI(string memory _notRevealedURI) public onlyOwner {\r\n        notRevealedUri = _notRevealedURI;\r\n    }\r\n\r\n    function pause(bool _state) public onlyOwner {\r\n        paused = _state;\r\n    }\r\n\r\n    function setOnlyWhitelisted(bool _state) public onlyOwner {\r\n        onlyWhitelisted = _state;\r\n    }\r\n\r\n    function whitelistUsers(address[] calldata _users) public onlyOwner {\r\n        delete whitelistedAddresses;\r\n        whitelistedAddresses = _users;\r\n    }\r\n\r\n    function withdraw() public payable onlyOwner {\r\n        // This will payout the owner 95% of the contract balance.\r\n        // Do not remove this otherwise you will not be able to withdraw the funds.\r\n        // =============================================================================\r\n        (bool os, ) = payable(owner()).call{value: address(this).balance}(\"\");\r\n        require(os);\r\n        // =============================================================================\r\n    }\r\n}",
  "sourcePath": "D:\\SiNiSteR\\my projects\\BLOCKCHAIN\\NFT\\ADVANCED\\pre-sale-minter\\contracts\\PreSale.sol",
  "compiler": {
    "name": "solc",
    "version": "0.8.12+commit.f00d7308.Emscripten.clang"
  },
  "schemaVersion": "3.4.4",
  "updatedAt": "2022-02-17T05:11:34.632Z",
  "networkType": "ethereum",
  "devdoc": {
    "kind": "dev",
    "methods": {
      "approve(address,uint256)": {
        "details": "See {IERC721-approve}."
      },
      "balanceOf(address)": {
        "details": "See {IERC721-balanceOf}."
      },
      "getApproved(uint256)": {
        "details": "See {IERC721-getApproved}."
      },
      "isApprovedForAll(address,address)": {
        "details": "See {IERC721-isApprovedForAll}."
      },
      "name()": {
        "details": "See {IERC721Metadata-name}."
      },
      "owner()": {
        "details": "Returns the address of the current owner."
      },
      "ownerOf(uint256)": {
        "details": "See {IERC721-ownerOf}."
      },
      "renounceOwnership()": {
        "details": "Leaves the contract without owner. It will not be possible to call `onlyOwner` functions anymore. Can only be called by the current owner. NOTE: Renouncing ownership will leave the contract without an owner, thereby removing any functionality that is only available to the owner."
      },
      "safeTransferFrom(address,address,uint256)": {
        "details": "See {IERC721-safeTransferFrom}."
      },
      "safeTransferFrom(address,address,uint256,bytes)": {
        "details": "See {IERC721-safeTransferFrom}."
      },
      "setApprovalForAll(address,bool)": {
        "details": "See {IERC721-setApprovalForAll}."
      },
      "supportsInterface(bytes4)": {
        "details": "See {IERC165-supportsInterface}."
      },
      "symbol()": {
        "details": "See {IERC721Metadata-symbol}."
      },
      "tokenByIndex(uint256)": {
        "details": "See {IERC721Enumerable-tokenByIndex}."
      },
      "tokenOfOwnerByIndex(address,uint256)": {
        "details": "See {IERC721Enumerable-tokenOfOwnerByIndex}."
      },
      "tokenURI(uint256)": {
        "details": "See {IERC721Metadata-tokenURI}."
      },
      "totalSupply()": {
        "details": "See {IERC721Enumerable-totalSupply}."
      },
      "transferFrom(address,address,uint256)": {
        "details": "See {IERC721-transferFrom}."
      },
      "transferOwnership(address)": {
        "details": "Transfers ownership of the contract to a new account (`newOwner`). Can only be called by the current owner."
      }
    },
    "version": 1
  },
  "userdoc": {
    "kind": "user",
    "methods": {},
    "version": 1
  }
}