{
  "contractName": "SmartContract",
  "abi": [
    {
      "inputs": [],
      "stateMutability": "nonpayable",
      "type": "constructor"
    },
    {
      "anonymous": false,
      "inputs": [
        {
          "indexed": true,
          "internalType": "address",
          "name": "owner",
          "type": "address"
        },
        {
          "indexed": true,
          "internalType": "address",
          "name": "approved",
          "type": "address"
        },
        {
          "indexed": true,
          "internalType": "uint256",
          "name": "tokenId",
          "type": "uint256"
        }
      ],
      "name": "Approval",
      "type": "event"
    },
    {
      "anonymous": false,
      "inputs": [
        {
          "indexed": true,
          "internalType": "address",
          "name": "owner",
          "type": "address"
        },
        {
          "indexed": true,
          "internalType": "address",
          "name": "operator",
          "type": "address"
        },
        {
          "indexed": false,
          "internalType": "bool",
          "name": "approved",
          "type": "bool"
        }
      ],
      "name": "ApprovalForAll",
      "type": "event"
    },
    {
      "anonymous": false,
      "inputs": [
        {
          "indexed": true,
          "internalType": "address",
          "name": "previousOwner",
          "type": "address"
        },
        {
          "indexed": true,
          "internalType": "address",
          "name": "newOwner",
          "type": "address"
        }
      ],
      "name": "OwnershipTransferred",
      "type": "event"
    },
    {
      "anonymous": false,
      "inputs": [
        {
          "indexed": true,
          "internalType": "address",
          "name": "from",
          "type": "address"
        },
        {
          "indexed": true,
          "internalType": "address",
          "name": "to",
          "type": "address"
        },
        {
          "indexed": true,
          "internalType": "uint256",
          "name": "tokenId",
          "type": "uint256"
        }
      ],
      "name": "Transfer",
      "type": "event"
    },
    {
      "inputs": [
        {
          "internalType": "address",
          "name": "to",
          "type": "address"
        },
        {
          "internalType": "uint256",
          "name": "tokenId",
          "type": "uint256"
        }
      ],
      "name": "approve",
      "outputs": [],
      "stateMutability": "nonpayable",
      "type": "function"
    },
    {
      "inputs": [
        {
          "internalType": "address",
          "name": "owner",
          "type": "address"
        }
      ],
      "name": "balanceOf",
      "outputs": [
        {
          "internalType": "uint256",
          "name": "",
          "type": "uint256"
        }
      ],
      "stateMutability": "view",
      "type": "function"
    },
    {
      "inputs": [
        {
          "internalType": "uint256",
          "name": "tokenId",
          "type": "uint256"
        }
      ],
      "name": "getApproved",
      "outputs": [
        {
          "internalType": "address",
          "name": "",
          "type": "address"
        }
      ],
      "stateMutability": "view",
      "type": "function"
    },
    {
      "inputs": [
        {
          "internalType": "address",
          "name": "owner",
          "type": "address"
        },
        {
          "internalType": "address",
          "name": "operator",
          "type": "address"
        }
      ],
      "name": "isApprovedForAll",
      "outputs": [
        {
          "internalType": "bool",
          "name": "",
          "type": "bool"
        }
      ],
      "stateMutability": "view",
      "type": "function"
    },
    {
      "inputs": [],
      "name": "name",
      "outputs": [
        {
          "internalType": "string",
          "name": "",
          "type": "string"
        }
      ],
      "stateMutability": "view",
      "type": "function"
    },
    {
      "inputs": [],
      "name": "owner",
      "outputs": [
        {
          "internalType": "address",
          "name": "",
          "type": "address"
        }
      ],
      "stateMutability": "view",
      "type": "function"
    },
    {
      "inputs": [
        {
          "internalType": "uint256",
          "name": "tokenId",
          "type": "uint256"
        }
      ],
      "name": "ownerOf",
      "outputs": [
        {
          "internalType": "address",
          "name": "",
          "type": "address"
        }
      ],
      "stateMutability": "view",
      "type": "function"
    },
    {
      "inputs": [],
      "name": "renounceOwnership",
      "outputs": [],
      "stateMutability": "nonpayable",
      "type": "function"
    },
    {
      "inputs": [
        {
          "internalType": "address",
          "name": "from",
          "type": "address"
        },
        {
          "internalType": "address",
          "name": "to",
          "type": "address"
        },
        {
          "internalType": "uint256",
          "name": "tokenId",
          "type": "uint256"
        }
      ],
      "name": "safeTransferFrom",
      "outputs": [],
      "stateMutability": "nonpayable",
      "type": "function"
    },
    {
      "inputs": [
        {
          "internalType": "address",
          "name": "from",
          "type": "address"
        },
        {
          "internalType": "address",
          "name": "to",
          "type": "address"
        },
        {
          "internalType": "uint256",
          "name": "tokenId",
          "type": "uint256"
        },
        {
          "internalType": "bytes",
          "name": "_data",
          "type": "bytes"
        }
      ],
      "name": "safeTransferFrom",
      "outputs": [],
      "stateMutability": "nonpayable",
      "type": "function"
    },
    {
      "inputs": [
        {
          "internalType": "address",
          "name": "operator",
          "type": "address"
        },
        {
          "internalType": "bool",
          "name": "approved",
          "type": "bool"
        }
      ],
      "name": "setApprovalForAll",
      "outputs": [],
      "stateMutability": "nonpayable",
      "type": "function"
    },
    {
      "inputs": [
        {
          "internalType": "bytes4",
          "name": "interfaceId",
          "type": "bytes4"
        }
      ],
      "name": "supportsInterface",
      "outputs": [
        {
          "internalType": "bool",
          "name": "",
          "type": "bool"
        }
      ],
      "stateMutability": "view",
      "type": "function"
    },
    {
      "inputs": [],
      "name": "symbol",
      "outputs": [
        {
          "internalType": "string",
          "name": "",
          "type": "string"
        }
      ],
      "stateMutability": "view",
      "type": "function"
    },
    {
      "inputs": [
        {
          "internalType": "uint256",
          "name": "tokenId",
          "type": "uint256"
        }
      ],
      "name": "tokenURI",
      "outputs": [
        {
          "internalType": "string",
          "name": "",
          "type": "string"
        }
      ],
      "stateMutability": "view",
      "type": "function"
    },
    {
      "inputs": [
        {
          "internalType": "address",
          "name": "from",
          "type": "address"
        },
        {
          "internalType": "address",
          "name": "to",
          "type": "address"
        },
        {
          "internalType": "uint256",
          "name": "tokenId",
          "type": "uint256"
        }
      ],
      "name": "transferFrom",
      "outputs": [],
      "stateMutability": "nonpayable",
      "type": "function"
    },
    {
      "inputs": [
        {
          "internalType": "address",
          "name": "newOwner",
          "type": "address"
        }
      ],
      "name": "transferOwnership",
      "outputs": [],
      "stateMutability": "nonpayable",
      "type": "function"
    }
  ],
  "bytecode": "0x60806040523480156200001157600080fd5b506040518060400160405280600281526020017f736d0000000000000000000000000000000000000000000000000000000000008152506040518060400160405280600681526020017f7a6b6f6f70610000000000000000000000000000000000000000000000000000815250816000908051906020019062000096929190620001a6565b508060019080519060200190620000af929190620001a6565b505050620000d2620000c6620000d860201b60201c565b620000e060201b60201c565b620002bb565b600033905090565b6000600660009054906101000a900473ffffffffffffffffffffffffffffffffffffffff16905081600660006101000a81548173ffffffffffffffffffffffffffffffffffffffff021916908373ffffffffffffffffffffffffffffffffffffffff1602179055508173ffffffffffffffffffffffffffffffffffffffff168173ffffffffffffffffffffffffffffffffffffffff167f8be0079c531659141344cd1fd0a4f28419497f9722a3daafe3b4186f6b6457e060405160405180910390a35050565b828054620001b49062000285565b90600052602060002090601f016020900481019282620001d8576000855562000224565b82601f10620001f357805160ff191683800117855562000224565b8280016001018555821562000224579182015b828111156200022357825182559160200191906001019062000206565b5b50905062000233919062000237565b5090565b5b808211156200025257600081600090555060010162000238565b5090565b7f4e487b7100000000000000000000000000000000000000000000000000000000600052602260045260246000fd5b600060028204905060018216806200029e57607f821691505b60208210811415620002b557620002b462000256565b5b50919050565b6127c280620002cb6000396000f3fe608060405234801561001057600080fd5b50600436106101005760003560e01c8063715018a611610097578063b88d4fde11610066578063b88d4fde14610299578063c87b56dd146102b5578063e985e9c5146102e5578063f2fde38b1461031557610100565b8063715018a6146102375780638da5cb5b1461024157806395d89b411461025f578063a22cb4651461027d57610100565b806323b872dd116100d357806323b872dd1461019f57806342842e0e146101bb5780636352211e146101d757806370a082311461020757610100565b806301ffc9a71461010557806306fdde0314610135578063081812fc14610153578063095ea7b314610183575b600080fd5b61011f600480360381019061011a919061171f565b610331565b60405161012c9190611767565b60405180910390f35b61013d610413565b60405161014a919061181b565b60405180910390f35b61016d60048036038101906101689190611873565b6104a5565b60405161017a91906118e1565b60405180910390f35b61019d60048036038101906101989190611928565b61052a565b005b6101b960048036038101906101b49190611968565b610642565b005b6101d560048036038101906101d09190611968565b6106a2565b005b6101f160048036038101906101ec9190611873565b6106c2565b6040516101fe91906118e1565b60405180910390f35b610221600480360381019061021c91906119bb565b610774565b60405161022e91906119f7565b60405180910390f35b61023f61082c565b005b6102496108b4565b60405161025691906118e1565b60405180910390f35b6102676108de565b604051610274919061181b565b60405180910390f35b61029760048036038101906102929190611a3e565b610970565b005b6102b360048036038101906102ae9190611bb3565b610986565b005b6102cf60048036038101906102ca9190611873565b6109e8565b6040516102dc919061181b565b60405180910390f35b6102ff60048036038101906102fa9190611c36565b610a8f565b60405161030c9190611767565b60405180910390f35b61032f600480360381019061032a91906119bb565b610b23565b005b60007f80ac58cd000000000000000000000000000000000000000000000000000000007bffffffffffffffffffffffffffffffffffffffffffffffffffffffff1916827bffffffffffffffffffffffffffffffffffffffffffffffffffffffff191614806103fc57507f5b5e139f000000000000000000000000000000000000000000000000000000007bffffffffffffffffffffffffffffffffffffffffffffffffffffffff1916827bffffffffffffffffffffffffffffffffffffffffffffffffffffffff1916145b8061040c575061040b82610c1b565b5b9050919050565b60606000805461042290611ca5565b80601f016020809104026020016040519081016040528092919081815260200182805461044e90611ca5565b801561049b5780601f106104705761010080835404028352916020019161049b565b820191906000526020600020905b81548152906001019060200180831161047e57829003601f168201915b5050505050905090565b60006104b082610c85565b6104ef576040517f08c379a00000000000000000000000000000000000000000000000000000000081526004016104e690611d49565b60405180910390fd5b6004600083815260200190815260200160002060009054906101000a900473ffffffffffffffffffffffffffffffffffffffff169050919050565b6000610535826106c2565b90508073ffffffffffffffffffffffffffffffffffffffff168373ffffffffffffffffffffffffffffffffffffffff1614156105a6576040517f08c379a000000000000000000000000000000000000000000000000000000000815260040161059d90611ddb565b60405180910390fd5b8073ffffffffffffffffffffffffffffffffffffffff166105c5610cf1565b73ffffffffffffffffffffffffffffffffffffffff1614806105f457506105f3816105ee610cf1565b610a8f565b5b610633576040517f08c379a000000000000000000000000000000000000000000000000000000000815260040161062a90611e6d565b60405180910390fd5b61063d8383610cf9565b505050565b61065361064d610cf1565b82610db2565b610692576040517f08c379a000000000000000000000000000000000000000000000000000000000815260040161068990611eff565b60405180910390fd5b61069d838383610e90565b505050565b6106bd83838360405180602001604052806000815250610986565b505050565b6000806002600084815260200190815260200160002060009054906101000a900473ffffffffffffffffffffffffffffffffffffffff169050600073ffffffffffffffffffffffffffffffffffffffff168173ffffffffffffffffffffffffffffffffffffffff16141561076b576040517f08c379a000000000000000000000000000000000000000000000000000000000815260040161076290611f91565b60405180910390fd5b80915050919050565b60008073ffffffffffffffffffffffffffffffffffffffff168273ffffffffffffffffffffffffffffffffffffffff1614156107e5576040517f08c379a00000000000000000000000000000000000000000000000000000000081526004016107dc90612023565b60405180910390fd5b600360008373ffffffffffffffffffffffffffffffffffffffff1673ffffffffffffffffffffffffffffffffffffffff168152602001908152602001600020549050919050565b610834610cf1565b73ffffffffffffffffffffffffffffffffffffffff166108526108b4565b73ffffffffffffffffffffffffffffffffffffffff16146108a8576040517f08c379a000000000000000000000000000000000000000000000000000000000815260040161089f9061208f565b60405180910390fd5b6108b260006110f7565b565b6000600660009054906101000a900473ffffffffffffffffffffffffffffffffffffffff16905090565b6060600180546108ed90611ca5565b80601f016020809104026020016040519081016040528092919081815260200182805461091990611ca5565b80156109665780601f1061093b57610100808354040283529160200191610966565b820191906000526020600020905b81548152906001019060200180831161094957829003601f168201915b5050505050905090565b61098261097b610cf1565b83836111bd565b5050565b610997610991610cf1565b83610db2565b6109d6576040517f08c379a00000000000000000000000000000000000000000000000000000000081526004016109cd90611eff565b60405180910390fd5b6109e28484848461132a565b50505050565b60606109f382610c85565b610a32576040517f08c379a0000000000000000000000000000000000000000000000000000000008152600401610a2990612121565b60405180910390fd5b6000610a3c611386565b90506000815111610a5c5760405180602001604052806000815250610a87565b80610a668461139d565b604051602001610a7792919061217d565b6040516020818303038152906040525b915050919050565b6000600560008473ffffffffffffffffffffffffffffffffffffffff1673ffffffffffffffffffffffffffffffffffffffff16815260200190815260200160002060008373ffffffffffffffffffffffffffffffffffffffff1673ffffffffffffffffffffffffffffffffffffffff16815260200190815260200160002060009054906101000a900460ff16905092915050565b610b2b610cf1565b73ffffffffffffffffffffffffffffffffffffffff16610b496108b4565b73ffffffffffffffffffffffffffffffffffffffff1614610b9f576040517f08c379a0000000000000000000000000000000000000000000000000000000008152600401610b969061208f565b60405180910390fd5b600073ffffffffffffffffffffffffffffffffffffffff168173ffffffffffffffffffffffffffffffffffffffff161415610c0f576040517f08c379a0000000000000000000000000000000000000000000000000000000008152600401610c0690612213565b60405180910390fd5b610c18816110f7565b50565b60007f01ffc9a7000000000000000000000000000000000000000000000000000000007bffffffffffffffffffffffffffffffffffffffffffffffffffffffff1916827bffffffffffffffffffffffffffffffffffffffffffffffffffffffff1916149050919050565b60008073ffffffffffffffffffffffffffffffffffffffff166002600084815260200190815260200160002060009054906101000a900473ffffffffffffffffffffffffffffffffffffffff1673ffffffffffffffffffffffffffffffffffffffff1614159050919050565b600033905090565b816004600083815260200190815260200160002060006101000a81548173ffffffffffffffffffffffffffffffffffffffff021916908373ffffffffffffffffffffffffffffffffffffffff160217905550808273ffffffffffffffffffffffffffffffffffffffff16610d6c836106c2565b73ffffffffffffffffffffffffffffffffffffffff167f8c5be1e5ebec7d5bd14f71427d1e84f3dd0314c0f7b2291e5b200ac8c7c3b92560405160405180910390a45050565b6000610dbd82610c85565b610dfc576040517f08c379a0000000000000000000000000000000000000000000000000000000008152600401610df3906122a5565b60405180910390fd5b6000610e07836106c2565b90508073ffffffffffffffffffffffffffffffffffffffff168473ffffffffffffffffffffffffffffffffffffffff161480610e7657508373ffffffffffffffffffffffffffffffffffffffff16610e5e846104a5565b73ffffffffffffffffffffffffffffffffffffffff16145b80610e875750610e868185610a8f565b5b91505092915050565b8273ffffffffffffffffffffffffffffffffffffffff16610eb0826106c2565b73ffffffffffffffffffffffffffffffffffffffff1614610f06576040517f08c379a0000000000000000000000000000000000000000000000000000000008152600401610efd90612337565b60405180910390fd5b600073ffffffffffffffffffffffffffffffffffffffff168273ffffffffffffffffffffffffffffffffffffffff161415610f76576040517f08c379a0000000000000000000000000000000000000000000000000000000008152600401610f6d906123c9565b60405180910390fd5b610f818383836114fe565b610f8c600082610cf9565b6001600360008573ffffffffffffffffffffffffffffffffffffffff1673ffffffffffffffffffffffffffffffffffffffff1681526020019081526020016000206000828254610fdc9190612418565b925050819055506001600360008473ffffffffffffffffffffffffffffffffffffffff1673ffffffffffffffffffffffffffffffffffffffff1681526020019081526020016000206000828254611033919061244c565b92505081905550816002600083815260200190815260200160002060006101000a81548173ffffffffffffffffffffffffffffffffffffffff021916908373ffffffffffffffffffffffffffffffffffffffff160217905550808273ffffffffffffffffffffffffffffffffffffffff168473ffffffffffffffffffffffffffffffffffffffff167fddf252ad1be2c89b69c2b068fc378daa952ba7f163c4a11628f55a4df523b3ef60405160405180910390a46110f2838383611503565b505050565b6000600660009054906101000a900473ffffffffffffffffffffffffffffffffffffffff16905081600660006101000a81548173ffffffffffffffffffffffffffffffffffffffff021916908373ffffffffffffffffffffffffffffffffffffffff1602179055508173ffffffffffffffffffffffffffffffffffffffff168173ffffffffffffffffffffffffffffffffffffffff167f8be0079c531659141344cd1fd0a4f28419497f9722a3daafe3b4186f6b6457e060405160405180910390a35050565b8173ffffffffffffffffffffffffffffffffffffffff168373ffffffffffffffffffffffffffffffffffffffff16141561122c576040517f08c379a0000000000000000000000000000000000000000000000000000000008152600401611223906124ee565b60405180910390fd5b80600560008573ffffffffffffffffffffffffffffffffffffffff1673ffffffffffffffffffffffffffffffffffffffff16815260200190815260200160002060008473ffffffffffffffffffffffffffffffffffffffff1673ffffffffffffffffffffffffffffffffffffffff16815260200190815260200160002060006101000a81548160ff0219169083151502179055508173ffffffffffffffffffffffffffffffffffffffff168373ffffffffffffffffffffffffffffffffffffffff167f17307eab39ab6107e8899845ad3d59bd9653f200f220920489ca2b5937696c318360405161131d9190611767565b60405180910390a3505050565b611335848484610e90565b61134184848484611508565b611380576040517f08c379a000000000000000000000000000000000000000000000000000000000815260040161137790612580565b60405180910390fd5b50505050565b606060405180602001604052806000815250905090565b606060008214156113e5576040518060400160405280600181526020017f300000000000000000000000000000000000000000000000000000000000000081525090506114f9565b600082905060005b60008214611417578080611400906125a0565b915050600a826114109190612618565b91506113ed565b60008167ffffffffffffffff81111561143357611432611a88565b5b6040519080825280601f01601f1916602001820160405280156114655781602001600182028036833780820191505090505b5090505b600085146114f25760018261147e9190612418565b9150600a8561148d9190612649565b6030611499919061244c565b60f81b8183815181106114af576114ae61267a565b5b60200101907effffffffffffffffffffffffffffffffffffffffffffffffffffffffffffff1916908160001a905350600a856114eb9190612618565b9450611469565b8093505050505b919050565b505050565b505050565b60006115298473ffffffffffffffffffffffffffffffffffffffff16611690565b15611683578373ffffffffffffffffffffffffffffffffffffffff1663150b7a02611552610cf1565b8786866040518563ffffffff1660e01b815260040161157494939291906126fe565b6020604051808303816000875af19250505080156115b057506040513d601f19601f820116820180604052508101906115ad919061275f565b60015b611633573d80600081146115e0576040519150601f19603f3d011682016040523d82523d6000602084013e6115e5565b606091505b5060008151141561162b576040517f08c379a000000000000000000000000000000000000000000000000000000000815260040161162290612580565b60405180910390fd5b805181602001fd5b63150b7a0260e01b7bffffffffffffffffffffffffffffffffffffffffffffffffffffffff1916817bffffffffffffffffffffffffffffffffffffffffffffffffffffffff191614915050611688565b600190505b949350505050565b6000808273ffffffffffffffffffffffffffffffffffffffff163b119050919050565b6000604051905090565b600080fd5b600080fd5b60007fffffffff0000000000000000000000000000000000000000000000000000000082169050919050565b6116fc816116c7565b811461170757600080fd5b50565b600081359050611719816116f3565b92915050565b600060208284031215611735576117346116bd565b5b60006117438482850161170a565b91505092915050565b60008115159050919050565b6117618161174c565b82525050565b600060208201905061177c6000830184611758565b92915050565b600081519050919050565b600082825260208201905092915050565b60005b838110156117bc5780820151818401526020810190506117a1565b838111156117cb576000848401525b50505050565b6000601f19601f8301169050919050565b60006117ed82611782565b6117f7818561178d565b935061180781856020860161179e565b611810816117d1565b840191505092915050565b6000602082019050818103600083015261183581846117e2565b905092915050565b6000819050919050565b6118508161183d565b811461185b57600080fd5b50565b60008135905061186d81611847565b92915050565b600060208284031215611889576118886116bd565b5b60006118978482850161185e565b91505092915050565b600073ffffffffffffffffffffffffffffffffffffffff82169050919050565b60006118cb826118a0565b9050919050565b6118db816118c0565b82525050565b60006020820190506118f660008301846118d2565b92915050565b611905816118c0565b811461191057600080fd5b50565b600081359050611922816118fc565b92915050565b6000806040838503121561193f5761193e6116bd565b5b600061194d85828601611913565b925050602061195e8582860161185e565b9150509250929050565b600080600060608486031215611981576119806116bd565b5b600061198f86828701611913565b93505060206119a086828701611913565b92505060406119b18682870161185e565b9150509250925092565b6000602082840312156119d1576119d06116bd565b5b60006119df84828501611913565b91505092915050565b6119f18161183d565b82525050565b6000602082019050611a0c60008301846119e8565b92915050565b611a1b8161174c565b8114611a2657600080fd5b50565b600081359050611a3881611a12565b92915050565b60008060408385031215611a5557611a546116bd565b5b6000611a6385828601611913565b9250506020611a7485828601611a29565b9150509250929050565b600080fd5b600080fd5b7f4e487b7100000000000000000000000000000000000000000000000000000000600052604160045260246000fd5b611ac0826117d1565b810181811067ffffffffffffffff82111715611adf57611ade611a88565b5b80604052505050565b6000611af26116b3565b9050611afe8282611ab7565b919050565b600067ffffffffffffffff821115611b1e57611b1d611a88565b5b611b27826117d1565b9050602081019050919050565b82818337600083830152505050565b6000611b56611b5184611b03565b611ae8565b905082815260208101848484011115611b7257611b71611a83565b5b611b7d848285611b34565b509392505050565b600082601f830112611b9a57611b99611a7e565b5b8135611baa848260208601611b43565b91505092915050565b60008060008060808587031215611bcd57611bcc6116bd565b5b6000611bdb87828801611913565b9450506020611bec87828801611913565b9350506040611bfd8782880161185e565b925050606085013567ffffffffffffffff811115611c1e57611c1d6116c2565b5b611c2a87828801611b85565b91505092959194509250565b60008060408385031215611c4d57611c4c6116bd565b5b6000611c5b85828601611913565b9250506020611c6c85828601611913565b9150509250929050565b7f4e487b7100000000000000000000000000000000000000000000000000000000600052602260045260246000fd5b60006002820490506001821680611cbd57607f821691505b60208210811415611cd157611cd0611c76565b5b50919050565b7f4552433732313a20617070726f76656420717565727920666f72206e6f6e657860008201527f697374656e7420746f6b656e0000000000000000000000000000000000000000602082015250565b6000611d33602c8361178d565b9150611d3e82611cd7565b604082019050919050565b60006020820190508181036000830152611d6281611d26565b9050919050565b7f4552433732313a20617070726f76616c20746f2063757272656e74206f776e6560008201527f7200000000000000000000000000000000000000000000000000000000000000602082015250565b6000611dc560218361178d565b9150611dd082611d69565b604082019050919050565b60006020820190508181036000830152611df481611db8565b9050919050565b7f4552433732313a20617070726f76652063616c6c6572206973206e6f74206f7760008201527f6e6572206e6f7220617070726f76656420666f7220616c6c0000000000000000602082015250565b6000611e5760388361178d565b9150611e6282611dfb565b604082019050919050565b60006020820190508181036000830152611e8681611e4a565b9050919050565b7f4552433732313a207472616e736665722063616c6c6572206973206e6f74206f60008201527f776e6572206e6f7220617070726f766564000000000000000000000000000000602082015250565b6000611ee960318361178d565b9150611ef482611e8d565b604082019050919050565b60006020820190508181036000830152611f1881611edc565b9050919050565b7f4552433732313a206f776e657220717565727920666f72206e6f6e657869737460008201527f656e7420746f6b656e0000000000000000000000000000000000000000000000602082015250565b6000611f7b60298361178d565b9150611f8682611f1f565b604082019050919050565b60006020820190508181036000830152611faa81611f6e565b9050919050565b7f4552433732313a2062616c616e636520717565727920666f7220746865207a6560008201527f726f206164647265737300000000000000000000000000000000000000000000602082015250565b600061200d602a8361178d565b915061201882611fb1565b604082019050919050565b6000602082019050818103600083015261203c81612000565b9050919050565b7f4f776e61626c653a2063616c6c6572206973206e6f7420746865206f776e6572600082015250565b600061207960208361178d565b915061208482612043565b602082019050919050565b600060208201905081810360008301526120a88161206c565b9050919050565b7f4552433732314d657461646174613a2055524920717565727920666f72206e6f60008201527f6e6578697374656e7420746f6b656e0000000000000000000000000000000000602082015250565b600061210b602f8361178d565b9150612116826120af565b604082019050919050565b6000602082019050818103600083015261213a816120fe565b9050919050565b600081905092915050565b600061215782611782565b6121618185612141565b935061217181856020860161179e565b80840191505092915050565b6000612189828561214c565b9150612195828461214c565b91508190509392505050565b7f4f776e61626c653a206e6577206f776e657220697320746865207a65726f206160008201527f6464726573730000000000000000000000000000000000000000000000000000602082015250565b60006121fd60268361178d565b9150612208826121a1565b604082019050919050565b6000602082019050818103600083015261222c816121f0565b9050919050565b7f4552433732313a206f70657261746f7220717565727920666f72206e6f6e657860008201527f697374656e7420746f6b656e0000000000000000000000000000000000000000602082015250565b600061228f602c8361178d565b915061229a82612233565b604082019050919050565b600060208201905081810360008301526122be81612282565b9050919050565b7f4552433732313a207472616e736665722066726f6d20696e636f72726563742060008201527f6f776e6572000000000000000000000000000000000000000000000000000000602082015250565b600061232160258361178d565b915061232c826122c5565b604082019050919050565b6000602082019050818103600083015261235081612314565b9050919050565b7f4552433732313a207472616e7366657220746f20746865207a65726f2061646460008201527f7265737300000000000000000000000000000000000000000000000000000000602082015250565b60006123b360248361178d565b91506123be82612357565b604082019050919050565b600060208201905081810360008301526123e2816123a6565b9050919050565b7f4e487b7100000000000000000000000000000000000000000000000000000000600052601160045260246000fd5b60006124238261183d565b915061242e8361183d565b925082821015612441576124406123e9565b5b828203905092915050565b60006124578261183d565b91506124628361183d565b9250827fffffffffffffffffffffffffffffffffffffffffffffffffffffffffffffffff03821115612497576124966123e9565b5b828201905092915050565b7f4552433732313a20617070726f766520746f2063616c6c657200000000000000600082015250565b60006124d860198361178d565b91506124e3826124a2565b602082019050919050565b60006020820190508181036000830152612507816124cb565b9050919050565b7f4552433732313a207472616e7366657220746f206e6f6e20455243373231526560008201527f63656976657220696d706c656d656e7465720000000000000000000000000000602082015250565b600061256a60328361178d565b91506125758261250e565b604082019050919050565b600060208201905081810360008301526125998161255d565b9050919050565b60006125ab8261183d565b91507fffffffffffffffffffffffffffffffffffffffffffffffffffffffffffffffff8214156125de576125dd6123e9565b5b600182019050919050565b7f4e487b7100000000000000000000000000000000000000000000000000000000600052601260045260246000fd5b60006126238261183d565b915061262e8361183d565b92508261263e5761263d6125e9565b5b828204905092915050565b60006126548261183d565b915061265f8361183d565b92508261266f5761266e6125e9565b5b828206905092915050565b7f4e487b7100000000000000000000000000000000000000000000000000000000600052603260045260246000fd5b600081519050919050565b600082825260208201905092915050565b60006126d0826126a9565b6126da81856126b4565b93506126ea81856020860161179e565b6126f3816117d1565b840191505092915050565b600060808201905061271360008301876118d2565b61272060208301866118d2565b61272d60408301856119e8565b818103606083015261273f81846126c5565b905095945050505050565b600081519050612759816116f3565b92915050565b600060208284031215612775576127746116bd565b5b60006127838482850161274a565b9150509291505056fea26469706673582212207b2705c1676123d5f05a210563f29e71e4ab6e337eb7042b09fa02acd13d8ef764736f6c634300080c0033",
  "immutableReferences": {},
  "source": "// SPDX-License-Identifier: MIT\r\npragma solidity >=0.4.21 <8.10.0;\r\n\r\nimport \"@openzeppelin/contracts/token/ERC721/ERC721.sol\";\r\nimport \"@openzeppelin/contracts/utils/Counters.sol\";\r\nimport \"@openzeppelin/contracts/access/Ownable.sol\";\r\n\r\ncontract SmartContract is ERC721, Ownable{\r\n\r\n    using Counters for Counters.Counter;\r\n\r\n    constructor() ERC721(\"sm\", \"zkoopa\"){}\r\n}\r\n",
  "sourcePath": "D:\\SiNiSteR\\my projects\\BLOCKCHAIN\\NFT\\ADVANCED\\pre-sale-minter\\contracts\\SmartContract.sol",
  "compiler": {
    "name": "solc",
    "version": "0.8.12+commit.f00d7308.Emscripten.clang"
  },
  "schemaVersion": "3.4.4",
  "updatedAt": "2022-02-17T05:10:29.842Z",
  "devdoc": {
    "kind": "dev",
    "methods": {
      "approve(address,uint256)": {
        "details": "See {IERC721-approve}."
      },
      "balanceOf(address)": {
        "details": "See {IERC721-balanceOf}."
      },
      "getApproved(uint256)": {
        "details": "See {IERC721-getApproved}."
      },
      "isApprovedForAll(address,address)": {
        "details": "See {IERC721-isApprovedForAll}."
      },
      "name()": {
        "details": "See {IERC721Metadata-name}."
      },
      "owner()": {
        "details": "Returns the address of the current owner."
      },
      "ownerOf(uint256)": {
        "details": "See {IERC721-ownerOf}."
      },
      "renounceOwnership()": {
        "details": "Leaves the contract without owner. It will not be possible to call `onlyOwner` functions anymore. Can only be called by the current owner. NOTE: Renouncing ownership will leave the contract without an owner, thereby removing any functionality that is only available to the owner."
      },
      "safeTransferFrom(address,address,uint256)": {
        "details": "See {IERC721-safeTransferFrom}."
      },
      "safeTransferFrom(address,address,uint256,bytes)": {
        "details": "See {IERC721-safeTransferFrom}."
      },
      "setApprovalForAll(address,bool)": {
        "details": "See {IERC721-setApprovalForAll}."
      },
      "supportsInterface(bytes4)": {
        "details": "See {IERC165-supportsInterface}."
      },
      "symbol()": {
        "details": "See {IERC721Metadata-symbol}."
      },
      "tokenURI(uint256)": {
        "details": "See {IERC721Metadata-tokenURI}."
      },
      "transferFrom(address,address,uint256)": {
        "details": "See {IERC721-transferFrom}."
      },
      "transferOwnership(address)": {
        "details": "Transfers ownership of the contract to a new account (`newOwner`). Can only be called by the current owner."
      }
    },
    "version": 1
  },
  "userdoc": {
    "kind": "user",
    "methods": {},
    "version": 1
  }
}